:100000000C94FB030C9418040C9418040C9418041E
:100010000C9418040C9418040C9418040C941804F0
:100020000C9418040C9418040C9418040C94C40C2C
:100030000C9418040C9418040C9418040C941804D0
:100040000C9418040C9418040C94340D0C940C0D9E
:100050000C9418040C949D130C9418040C9418041C
:100060000C9418040C9418046B10231117113910F8
:100070002E10FA0EEE0D2F0F130FB90F830FA70FCF
:100080004C0FBC108A10F810E60F8A101F11E50EF5
:100090005810F10EB70DE90DE90DB70DE90DE90D99
:1000A000E90DE90DE90DE90DE90DE90DE90DE90DA0
:1000B000E90DE90DE90DE90DE90DE90DE90DE90D90
:1000C000E90DE90DE90DE90DE90DE90DE90DE90D80
:1000D000E90DE90DE90D9D0EE90DE90DE90DE90DBB
:1000E0006E0E6E0E6E0E6E0E6E0E6E0E6E0E6E0E30
:1000F0006E0E6E0EE90DE90DE90DE90D6C0EE90DC0
:10010000E90DE90DE90DE90DE90D630E5A0EE90D52
:10011000E90DE90DE90DE90DE90DE90DE90D510EC6
:10012000E90DE90DE90D480EE90DE90DE90DE90DBF
:10013000E90DE90DE90DE90DE90DE90DE90DE90D0F
:10014000E90DE90D3C0E0A1591175D145D145D145F
:100150005D145D145D144D1717175D145D149D1625
:1001600015165D14FC155D145D14D81593155D14FA
:100170007015BD013708B4013105AF01A408A9010C
:10018000D307A301C7059B011C098E01050B496E0E
:10019000746572666572656E6365004D6574656F42
:1001A00072730054776973740044726F70730052F5
:1001B00061696E00537061726B6C65730057617694
:1001C0006500000092012403B6044806DA076C09B2
:1001D000FE0A900C210EB30F4411D5126614F715C8
:1001E00087171819A81A381CC71D561FE520742236
:1001F000022490251E27AB28382AC42B502DDC2E34
:100200006730F1317C3305358E3617389F39273BFF
:10021000AE3C343EBA3F3F41C3424744CB454D47D5
:10022000CF48504AD14B504DCF4E4D50CB514853F3
:10023000C3543E56B9573259AA5A225C995D0F5F92
:100240008460F8616B63DD644E66BE672D699B6AEE
:10025000086C746DDF6E4970B2711A738074E67544
:100260004A77AD78107A707BD07C2F7E8C7FE880C7
:1002700043829C83F5844C86A187F688498A9A8BB1
:10028000EB8C3A8E888FD4901F926893B094F79538
:100290003C978098C299039B429C809DBC9EF79F8F
:1002A00030A168A29EA3D2A405A636A766A894A9E9
:1002B000C1AAEBAB14AD3CAE62AF86B0A8B1C9B277
:1002C000E8B305B520B63AB752B868B97DBA8FBB66
:1002D000A0BCAFBDBCBEC7BFD1C0D8C1DEC2E2C3E7
:1002E000E4C4E4C5E2C6DEC7D9C8D1C9C7CABCCB1D
:1002F000AECC9FCD8ECE7ACF65D04DD134D218D32F
:10030000FBD3DBD4BAD596D670D748D81ED9F2D94C
:10031000C4DA94DB62DC2DDDF7DDBEDE83DF46E090
:1003200007E1C6E182E23CE3F4E3AAE45EE510E61D
:10033000BFE66CE717E8BFE866E90AEAABEA4BEB11
:10034000E8EB83EC1CEDB3ED47EED9EE68EFF5EF8B
:1003500080F009F18FF113F295F214F391F30CF49C
:1003600084F4FAF46EF5DFF54EF6BAF624F78CF75E
:10037000F1F754F8B4F813F96EF9C8F91FFA73FAE3
:10038000C5FA15FB62FBADFBF5FB3BFC7FFCC0FC3B
:10039000FEFC3BFD74FDACFDE1FD13FE43FE71FE72
:1003A0009CFEC4FEEBFE0EFF30FF4EFF6BFF85FF91
:1003B0009CFFB1FFC4FFD4FFE1FFECFFF5FFFBFFA3
:1003C000FFFF574A41505F4355523A220050442C98
:1003D0000041494C0D0053454E4420004F534544C5
:1003E0000D004641494C0D004E4E45435400757377
:1003F000792000454E44204F4B0D0041494C0D00E3
:1004000052524F520D004B0D002C330D0A00220D9D
:100410000A00222C220041542B4349505345525686
:1004200045523D300D0A0041542B4349505345522B
:100430005645523D312C0041542B43495053454EB3
:10044000444255463D0041542B43575341505F436E
:1004500055523D220041542B43574A41505F43556A
:10046000523D220041542B43574A41505F4355525D
:100470003F0D0A0041542B43495041505F435552B0
:100480003D220041542B43574D4F44455F43555245
:100490003D0041542B4349505354415F4355523D15
:1004A000220041542B4357444843505F4355523D2B
:1004B000302C310D0A0041542B4357444843505FC0
:1004C0004355523D312C310D0A0041542B434950C4
:1004D0004D55583D310D0A0041542B434950434C72
:1004E0004F53453D00415445300D0A0041542B55B2
:1004F0004152545F4355523D313030303030302C12
:10050000382C312C302C320D0A0041542B525354CC
:100510000D0A0041540D0A0001000A006400E803BE
:1005200010273235352E3235352E3235352E300006
:100530003139322E3136382E31302E3100313932C8
:100540002E3136382E31302E3100303132333435C1
:100550003637383900574946495F594F4C4B4100AF
:10056000C44614EF47FFC98BDDABFA28633BB829BB
:10057000E6CF5245494E49540045544D4147494301
:10058000004F4C4B415F424C5354003C00BC0701B0
:100590003C0D0100FEFF800189078600000000007D
:1005A00000C0016C0786000000000000A000520798
:1005B00085000000000000C0004A07850000000020
:1005C0000000E0003D078500000000000000012A57
:1005D000078655050000000040011807864A0500FF
:1005E00000000040000707853D0500000000600096
:1005F000F306853005000000008000DD0685220539
:10060000000000003F00C70600060001000D0002C8
:1006100000B806013200010000020C00A30600141D
:10062000000100FE000D008E060014000000FE0018
:10063000080078060194020100FEFF0A005E060031
:1006400080000000FE00245652534D4B237E594F2C
:100650004C4B415F574601000201040120174164E1
:100660006A7573742054656D706572617475726516
:100670002053656E736F720041646A7573742056FF
:100680006F6C746167652053656E736F72004566A9
:10069000666563742054696D652028416464292C63
:1006A0002073004566666563742054696D65202873
:1006B0004D696E292C2073004E756D626572204F56
:1006C00066204C454473004150206D6F64653A20AC
:1006D00057694669206368616E6E656C0041502001
:1006E0006D6F64653A206E6574776F726B206D6113
:1006F000736B004150206D6F64653A2067617465CB
:10070000776179204950004150206D6F64653A202F
:1007100073656C66204950004150206D6F64653AE6
:100720002070617373776F7264004150206D6F6445
:10073000653A2073656C662053534944004E6574D6
:10074000776F726B204D61736B00476174657761E1
:100750007900495020286C6561766520626C616E75
:100760006B20666F722044484350290050617373B8
:10077000776F7264206F6620415020746F20636F22
:100780006E6E65637420746F0053534944206F6626
:1007900020415020746F20636F6E6E656374207407
:1007A0006F20286C6561766520626C616E6B2066D7
:1007B0006F72204150206D6F6465290054435020B2
:1007C000506F727420746F206C697374656E00656D
:1007D00072726F72004D414749434F4B005245437F
:1007E0004F4E4E454354005769466920596F6C6B14
:1007F0006120312E300011241FBECFEFD8E0DEBFC4
:10080000CDBF11E0A0E0B1E0E0E2FCE302C0059062
:100810000D92AA30B107D9F728E0AAE0B1E001C0F3
:100820001D92A030B207E1F70E94FF1B0C940E1E30
:100830000C9400002898209A08950F92A5E0B1E04A
:100840002D913D914C91DC01CB01880F991F860FB2
:10085000971F672B09F444C05FB7F8947D917A0322
:10086000612D08F46FEF289A660F10F4000001C0A4
:100870002898022E232F342F402D000028980000A6
:1008800000C000C076E0289A660F10F4000001C096
:10089000289800C07A9529F00000289800C000C070
:1008A000F2CF2898019781F07D910000289A660F79
:1008B00010F4000001C028987A03612D00C0289828
:1008C00008F46FEF00C0CFCF00C0289A660F10F475
:1008D000000001C0289800C000C0000028985FBF39
:1008E0000F9011240895F999FECF2FB7F894F99934
:1008F000FECF92BD81BDF89A80B52FBF8F3F09F022
:100900000895862F0895F999FECF2FB7F894F99995
:10091000FECF92BD81BDF89A80B5861719F060BDF3
:10092000FA9AF99A2FBF0895EF92FF920F931F93AF
:10093000CF93DF931F92CDB7DEB77C01062F6FEF09
:1009400079830E947304182F6FEFC70101960E94EC
:100950007304212F30E0382B79812F3F8FEF380738
:1009600049F0C9010F90DF91CF911F910F91FF9036
:10097000EF900895802F972F0F90DF91CF911F91C7
:100980000F91FF90EF900895CF93DF93AC01EC01AE
:100990000024CC0FDD1F001CCC0FDD1F001CCD2F51
:1009A000D02DD170C11521E0D20709F447C0A42F82
:1009B000AF73C13031E0D30748F080E092E09C0192
:1009C0002C1B3D0BE90180E48A1BA82FFE01EE0FD2
:1009D000FF1FEE53FE4F859194919C01AA23F9F0DD
:1009E000CF3FD10548F5FE01EE0FFF1FEC53FE4F40
:1009F00025913491F901E81BF90BAE9F9001AF9F4F
:100A0000300D1124205E3F4F0024220F331F001CA5
:100A1000220F331F001C232F302D280F391FDB011D
:100A20000E94DA1D70588F4F9F4FAA27BB2757FD92
:100A30000BC0DF91CF910895A03288F357FD0AC013
:100A4000CB01DF91CF910895919581959109DF9127
:100A5000CF91089588279927861B970BDF91CF9117
:100A600008950F931F93CF93DF9300E010E08091E0
:100A7000FD079091FE070097A9F0ACE0B1E09C0162
:100A8000220F331F280F391F265F3E4FEAE0F1E0A7
:100A90001082ED01219718821C9233961396E2176B
:100AA000F307B1F78017910758F10E94DC1BEC01A6
:100AB000CC0FDD1FC80FD91FC65FDE4F0E94971BEA
:100AC000869586958695809588830E94971B869546
:100AD00086958695809589830E94971B8695869535
:100AE000869580958A838AEF90E00E94DC1B080F30
:100AF000191F8091FD079091FE0780179107A8F6B6
:100B0000081B190B8AE091E00E94531B8111AFCFA3
:100B1000DF91CF911F910F910895FA0126E0829FF6
:100B2000C0011124AC015527649F9001659F300DD1
:100B3000112420583F4F892F99278230910519F1B0
:100B400050F40097E1F0019779F4862F831B80839E
:100B50006183128208958330910559F0049721F43E
:100B6000308311826283089560831182631B6283E4
:100B700008951082862F831B81836283089560838A
:100B800031831282089510826183328308954F92D7
:100B90005F926F927F928F929F92AF92BF92CF920D
:100BA000DF92EF92FF920F931F93CF93DF930E94F8
:100BB000781B5C010E94781B4C01412C512C80E079
:100BC00090E0C090FD07D090FE078C159D0581F048
:100BD000960136952795369527953695279540E0C9
:100BE00050E060E573EC80E090E00E94A61D2901D2
:100BF000B201C5010E94C4047C016090FD077090A1
:100C0000FE0761147104B1F0E301CC0FDD1FC60DC6
:100C1000D71DC95FDE4F840181E0681A7108AE01FB
:100C20006FEF812F0E948D050E0D1F1D23976114FC
:100C3000710491F781E6880E911C8DE3A80EB11C1A
:100C40008AE091E00E94531B882311F0C601B9CFBE
:100C5000DF91CF911F910F91FF90EF90DF90CF9098
:100C6000BF90AF909F908F907F906F905F904F90CC
:100C70000895D90126E0829FC0011124EFEFF0E032
:100C8000E61BF1094E9F90014F9F300D1124205813
:100C90003F4FFC01FF27542F531B5E9FB0015F9F06
:100CA000700D112460587F4F892F9927823091054C
:100CB000B1F168F4009751F10197B9F4842F871BC3
:100CC0008C9311964C93119712963C930895833010
:100CD000910599F0049749F4872F830F8C9311960F
:100CE0003C93119712964C9308954C9311963C9314
:100CF0001197471B12964C9308953C93842F871BA2
:100D000011968C93119712964C9308954C93872FBC
:100D1000830F11968C93119712963C9308953C93F0
:100D200011964C931197872F830F12968C930895E9
:100D30002F923F924F925F926F927F928F929F92EB
:100D4000AF92BF92CF92DF92EF92FF920F931F93D9
:100D5000CF93DF9300D000D000D0CDB7DEB7809125
:100D60000A0140910B0180900C01282F30E03C8358
:100D70002B83790190900D01092D10E0B801A7E0B7
:100D80008A9F600D711D1124CB01959587959595CE
:100D900087959595879580930A01242F30E03E83AF
:100DA0002D83A0900E016A2D70E0CB01B7E04B9F20
:100DB000800D911D1124959587959595879595950D
:100DC000879580930B01882D90E03C01B0900F0136
:100DD0004B2D50E0FA01A7E08A9EE00DF11D112491
:100DE000F595E795F595E795F595E795E0930C0171
:100DF000C090FD07D090FE07B3E0CB16D10408F4F5
:100E0000CDC0E2E1F1E01601220C331C2C0C3D1C9C
:100E1000A101445F5E4F2A01CA2CD92C0AC04C2D77
:100E2000DA2CC92CB22E97013C832B83242F30E07F
:100E3000C301ED2CF12CDF011297AC900A2D10E0CC
:100E4000AF01455051098B809C806EE0D69E800C8E
:100E5000911C1124800E911E9594879495948794EB
:100E60009594879495948794DA018C924C2D50E058
:100E70005E834D83AF0141505109DA019C90692D89
:100E800070E03F01B4E06B1A71084EE0C49E200D83
:100E9000311D1124260F371F359527953595279538
:100EA0003595279535952795D3012C936B2C712C6F
:100EB0002081422F50E01196BC83AB83BEE0BB9EE5
:100EC000800D911D1124840F951F959587959595FB
:100ED00087959595879595958795AB81BC818C93E2
:100EE0003396E415F50509F09ACFC101895F9E4F4D
:100EF0001C01C801880F991F880F991F880F991F1F
:100F0000801B910B8E0D9F1D9595879595958795C7
:100F100095958795D1018C93CB01880F991F880FE8
:100F2000991F880F991F861B970BED81FE818E0FED
:100F30009F1F95958795959587959595879511967A
:100F40008C931197CA01880F991F880F991F880FDA
:100F5000991F841B950B860D971D959587959595E3
:100F600087959595879512968C9326960FB6F8944B
:100F7000DEBF0FBECDBFDF91CF911F910F91FF90CC
:100F8000EF90DF90CF90BF90AF909F908F907F9029
:100F90006F905F904F903F902F900895EDE02E2E30
:100FA000E1E03E2EA6CF0F931F93CF93DF932091C6
:100FB000FD073091FE07C901880F991F820F931F0B
:100FC000009741F0EAE0F1E0865F9E4F1192E8174A
:100FD000F907E1F7C0E0D0E00E9498068091FD0794
:100FE0009091FE078C179D07E0F00E94DC1B8C019E
:100FF0000E94971BA801440F551F400F511F465FC9
:101000005E4F6FEF0E948D058CEB92E00E94DC1B1F
:10101000C80FD91F8091FD079091FE078C179D077F
:1010200020F7C81BD90B8AE091E00E94531B811165
:10103000D3CFDF91CF911F910F9108959A016F3F08
:10104000710559F050F06F3F91E0790758F49EEF29
:10105000961B4FEF692F0C943906462F9FEF692F8F
:101060000C94390690E04FEF692F0C9439066F927B
:101070007F929F92AF92BF92CF92DF92EF92FF92B8
:101080000F931F93CF93DF931F92CDB7DEB70E94CC
:10109000781B6C01A12C66E9B62E9D2D2091FD07D1
:1010A0003091FE07232B99F1EA2CF12C0AE011E094
:1010B0009B2C9A18612C712C21C0292D263908F0FF
:1010C0002659293108F1295130E0B901660F771FFF
:1010D000620F731FA801892F99830E941E089981AE
:1010E000995FFFEF6F1A7F0A0D5F1F4F9394209156
:1010F000FD073091FE076216730648F46E147F04F4
:10110000E0F2262D2A19DACF60E070E0E3CF8DE31C
:10111000C80ED11CA394E5E9EA1508F4A12C8AE0D5
:1011200091E00E94531B8111B8CF0F90DF91CF91B6
:101130001F910F91FF90EF90DF90CF90BF90AF90F5
:101140009F907F906F900895CF92DF92EF92FF92E1
:101150000F931F93CF93DF9300D0CDB7DEB7E12C71
:1011600000E010E0F12C8091FD079091FE078230A5
:10117000910508F45EC0EDE0F1E0AFE0CA2EA1E019
:10118000DA2EAC01440F551F480F591F9A01265FF4
:101190003E4F8081BF0163507109DB018C93C60112
:1011A0000197DC018C916F5F7F4FDB018C93D6013F
:1011B0008C916F5F7F4FDB018C933396B3E0CB0E46
:1011C000D11CE217F30729F7495F5E4FEE2009F1C2
:1011D000C801880F991F080F191F169507951695B6
:1011E0000795E7E0FE0EEA94B8018F2D0E941E08D5
:1011F0008AE091E00E94531B8111B5CF0F900F90B0
:10120000DF91CF911F910F91FF90EF90DF90CF90E2
:10121000089549835A830E94971BF82E83E20E9407
:10122000B81BF3E0EF2EE80E04EF11E049815A817C
:10123000DBCF4AE051E0CACF2F923F924F925F92AC
:101240006F927F928F929F92AF92BF92CF92DF92D6
:10125000EF92FF920F931F93CF93DF93CDB7DEB73B
:10126000CF54D1090FB6F894DEBF0FBECDBF1A829E
:1012700019821F861E861C8E1B8E19A618A61EAAF2
:101280001DAA50E040E02E961FAE2E972091FD073C
:101290003091FE07C901880F991F820F931F009795
:1012A00041F0EAE0F1E0865F9E4F1192E817F907FE
:1012B000E1F79E012F5F3F4F27963FAF2EAF279755
:1012C0002C5F3F4F2B963FAF2EAF2B9728965FAFEB
:1012D000289729964FAF299790E03FEF2C963FAF84
:1012E0002C9729962EAD3FAD2997232B09F4C3C027
:1012F0002796EEADFFAD2797028113812B96EEADB9
:10130000FFAD2B9760802796EEADFFAD2797C18488
:10131000D284258036808780908423853485772405
:1013200067FC70942301440C551C460C571C580153
:10133000AA0CBB1CA00EB11EA501445F5E4F5A0152
:101340002996EEACFFAC29972D969FAF2D97C20141
:1013500029019C0106C0A20EB31EC114D10409F4D8
:101360008EC017FD44C08091FD079091FE070817BD
:101370001907E8F5C70195958795959587959595F2
:101380008795959587959595879560E072E0681BA0
:10139000790B161617065CF5AE014E5B5F4F892D73
:1013A0002F962FAF2F9760963FAF60970E941E0831
:1013B00023968FAD2397F501329790812F962FAD0D
:1013C0002F9760963FAD6097981708F48083249616
:1013D0008FAD2497F5019291981708F48083259694
:1013E0008FAD2597F5019081981708F48083840CC0
:1013F000951C060D171DF1E0CF1AD108E218F3086D
:101400001E141F040CF4A7CF2D969FAD2D9729967F
:101410002EAD3FAD299733952796EEADFFAD2797BB
:10142000318320839F5F27962EAD3FAD2797235FA3
:101430003F4F27963FAF2EAF27972B962EAD3FAD50
:101440002B97235F3F4F2B963FAF2EAF2B979530B7
:1014500049F12796EEADFFAD27970190F081E02D81
:101460002996FFAFEEAF299729962EAD3FAD29976C
:10147000232B09F03DCF2C969FAF2C97D3CF2D96E1
:101480009FAD2D9721E0E21620E4F2060CF4BFCFC9
:101490002796EEADFFAD2797118210822C969FAF55
:1014A0002C97C0CF2E963FAD2E9731117EC02C9633
:1014B0009FAD2C979F3F09F46FC0E92EF12CE1E01E
:1014C000F0E0EC0FFD1F2DE0299FE00DF11D112430
:1014D00040E051E0518340830E94971B80FF8CC005
:1014E00081E05DE05E9D80015F9D100D1124E1E0D3
:1014F000F0E0EC0FFD1F0E0F1F1FF8018483809199
:10150000FD079091FE07969587950E94B81B409124
:10151000FD075091FE079A01369527953695279538
:1015200036952795280F311DF80132872187CA018A
:10153000821B930B0E94DC1BF8019383828324811E
:1015400027FD5CC080E090E40E94DC1BFDE0FE9D76
:101550008001FF9D100D112421E030E02C0F3D1F74
:10156000020F131F905E6091FD077091FE070E94AD
:10157000921DF801768365830E94781BF80190879D
:1015800087830E94781BF8019487838782E30E94F7
:10159000B81B2E968FAF2E978AE091E00E94531BC6
:1015A000882381F059814A8171CE2E962FAD2E97D6
:1015B00021502E962FAF2E978AE091E00E94531B68
:1015C0008111F0CFC15BDF4F0FB6F894DEBF0FBEC5
:1015D000CDBFDF91CF911F910F91FF90EF90DF90E2
:1015E000CF90BF90AF909F908F907F906F905F90C3
:1015F0004F903F902F9008958FEF73CF21853285C4
:10160000280F391F338322839DCF2F923F924F9211
:101610005F926F927F928F929F92AF92BF92CF9282
:10162000DF92EF92FF920F931F93CF93DF93CDB78B
:10163000DEB72C970FB6F894DEBF0FBECDBF0E9469
:10164000781B8C0180E090E20E94DC1B9E5F1C01F5
:101650000E94971B80FF03C031942194310880E0E1
:1016600091E00E94DC1B805C9F4F9E838D830E94D3
:10167000971B80FF07C08D819E819195819591096F
:101680009E838D830E94781B4C0180E090E20E9433
:10169000DC1B905F2C010E94971B80FF03C05194BC
:1016A000419451080E94781B5C010E94781B6C01D8
:1016B00080E091E00E94DC1B939598878F83350131
:1016C0005601980160E078E0C3012B873C870E94B7
:1016D000C404880D991D9A8389839FE4690E711C47
:1016E00060E670E0C5010E94C40480569F4F7C01F3
:1016F000EF81F885AE0EBF1E2B853C858D819E81C6
:10170000820F931F9C838B838091FD079091FE072E
:10171000892B21F10AE011E0C12CD12C3A872987CD
:10172000B701C4010E94C404BC017395A8018A8555
:101730000E941E08E985FA85E20DF31DFA87E98704
:10174000840C951CFFEFCF1ADF0A0D5F1F4F8091AD
:10175000FD079091FE07C816D90610F38AE091E0C4
:101760000E94531B882329F02B813C8189809A8019
:10177000A9CF2C960FB6F894DEBF0FBECDBFDF9178
:10178000CF911F910F91FF90EF90DF90CF90BF907E
:10179000AF909F908F907F906F905F904F903F9011
:1017A0002F900895E0919A0721E02E0F2F719091CC
:1017B0004F07291309C09091C10090629093C10016
:1017C00090914F072917B9F3F0E0E45FF84F808359
:1017D000F89420939A078091C10080628093C100A1
:1017E000789408950F931F93CF93DF936623F1F0BE
:1017F000062F08C0123291F0812F0E94D20B0150A7
:10180000A9F0CE01EC0121966FEF0E947304182F0E
:10181000882361F01C3511F01C3261F78CE50E94C1
:10182000D20B812F0E94D20B015059F7DF91CF913B
:101830001F910F910895CF93DF93813069F181114A
:1018400024C0E3E8F4E08491882349F0C4E8D4E0BC
:101850000E94D20BFE01849121968111F9CF83E37E
:101860000E94D20B8DE00E94D20B8AE00E94D20B24
:101870008CE080934C078AEF90E090934E07809322
:101880004D0780E0DF91CF91089582508230C8F2F9
:1018900080E0DF91CF91089581E0DF91CF910895AD
:1018A00090919807809197079817E1F3E92FF0E05E
:1018B000E05BF84F80819F5F9F7390939807209122
:1018C000970730E0291B31092F7333272032310568
:1018D00009F008955A9808951F93CF93DF93EC0170
:1018E00005C00E94500C2196181309C0FE011491E6
:1018F0001111F7CF81E0DF91CF911F91089581E021
:101900008093990780E0DF91CF911F910895DF9236
:10191000EF92FF920F931F93CF93DF938B01D42EFF
:101920007901EC012196FC018491882339F00E9411
:10193000D20BFE01849121968111F9CF6FEFC8017E
:101940000E9473048F3FA9F4E7012196F701849167
:10195000882339F00E94D20BFE01849121968111D7
:10196000F9CFDF91CF911F910F91FF90EF90DF9012
:1019700008956D2DC801DF91CF911F910F91FF90B8
:10198000EF90DF900C94F20B1F920F920FB60F9214
:1019900011248F939F9381E080930A0780914D07D4
:1019A00090914E07009729F0019790934E078093EE
:1019B0004D0780910B07882319F0815080930B0706
:1019C0009F918F910F900FBE0F901F901895529A74
:1019D00081E080934C0722E02093C00081E090E0FA
:1019E0009093C5008093C40088E98093C10086E08D
:1019F0008093C2001092800081EE94E09093890061
:101A00008093880020936F008CE080938100109277
:101A100085001092840008951F920F920FB60F92C6
:101A200011248F939F93EF93FF9380914F07E82F9B
:101A3000F0E0E45FF84F90819093C6008F5F8F7164
:101A400080934F0790919A07891305C08091C10038
:101A50008F7D8093C100FF91EF919F918F910F90A7
:101A60000FBE0F901F9018951F920F920FB60F92F6
:101A700011242F938F939F93EF93FF939091C60020
:101A800080919707E82FF0E0E05BF84F90838F5F3D
:101A90008F73809397072091980790E0821B91099C
:101AA0008F739927CA970CF05A9AFF91EF919F91E3
:101AB0008F912F910F900FBE0F901F901895CF927E
:101AC000DF92FF920F931F93CF93DF931F92CDB7B7
:101AD000DEB76C0100E215E094E0F12CF8012591ED
:101AE0003491C216D306F0F080E08F5FC21AD30A99
:101AF000C216D306D0F78823A9F0FF24F394805DA3
:101B000099830E94D20B99819150025011099F3FF5
:101B100029F70F90DF91CF911F910F91FF90DF90E8
:101B2000CF900895F11002C09111EECF80E0E7CF81
:101B3000FF920F931F93CF93DF9380919007909123
:101B40009107892B71F430C00E94500C809190074E
:101B50009091910701979093910780939007892B1B
:101B600019F190919807809197079813EDCF10E0A5
:101B700080914C07882309F43FC0173009F448C00E
:101B8000112309F46DC01092960790910B079111E3
:101B900033C0482F50E0FA013197E631F10560F586
:101BA000EC5CFF4F0C94C51D9091980780919707AE
:101BB0009817E9F20E94500C182F809199078130F4
:101BC00009F445C0412F50E0FA013A97E935F10593
:101BD000D8F081E08093990710E0CACF113009F462
:101BE00075C3112319F01250123030F484E680933B
:101BF0000B0781E080934C0710E0812FDF91CF919C
:101C00001F910F91FF900895E65BFF4F0C94C51D47
:101C1000909196079F5F90939607933068F3813079
:101C200071F0EAE0F5E08491882349F0CBE0D5E05B
:101C30000E94D20BFE01849121968111F9CF84E696
:101C400080930B0781E080934C0710E0D6CF1D30C6
:101C500019F01A3009F08BCF1092990710E088CF55
:101C600090910B079111C8CF20914D0730914E07ED
:101C7000232B09F48ECFC0CF8EEE93E00E946C0C24
:101C8000882309F4A6CF81E08093990717E070CFED
:101C900083EF93E00E946C0C882309F49ACF15E03F
:101CA00067CF86E094E00E946C0C882309F491CF02
:101CB00011E05ECF8BEF93E00E946C0C882309F457
:101CC00088CF13E055CF80E094E00E946C0C88230D
:101CD00009F47FCF12E04CCF14E04ACF0E94500CA1
:101CE0008C3209F076CF0E94500C833409F4F5C38E
:101CF00080538A3008F06DCF0E94500C90ED980F01
:101D00009A30D0F38C3209F064CF86ED93E00E94D4
:101D10006C0C882309F45DCF0E94500C8F3409F4B9
:101D2000C6C3863409F055CF81ED93E00E946C0C58
:101D3000882309F44ECF13E01BCF0E94500C83344C
:101D400009F494C2893409F012CF8DEC93E00E941B
:101D50006C0C882309F40BCF0E94500C10ED180F67
:101D60001A3008F004CF0E94500C8C3209F0FFCEDC
:101D70000E94500C90ED980F9A3008F0F8CEC0E019
:101D8000D0E09E01220F331FCC0FDD1FCC0FDD1FD3
:101D9000CC0FDD1FC20FD31FC80FD11DE0970E94CB
:101DA000500C90ED980F9A3060F38A3309F0DFCE33
:101DB000209709F4DCCED0939107C093900710616F
:101DC000812F807F09F019CFD3CE143009F42DC3B1
:101DD000113039F480914D0790914E07892B09F00D
:101DE0000BCF10924C0710924E0710924D07109295
:101DF0000B0702CFE5EEF4E08491882349F0C6EEAC
:101E0000D4E00E94D20BFE01849121968111F9CF7A
:101E100087E080934C0789E190E090934E07809390
:101E20004D0710E0EACE113009F0DBCEE6E1F4E038
:101E30008491882349F0C7E1D4E00E94D20BFE01CF
:101E4000849121968111F9CF8AE080934C078AEF23
:101E500090E090934E0780934D0710E0CECE115046
:101E6000123008F0ECCEEAECF4E08491882349F0DB
:101E7000CBECD4E00E94D20BFE018491219681111B
:101E8000F9CF89E080934C0789E190E090934E0769
:101E900080934D0710E0B1CE113009F0A2CE2DE3B2
:101EA00035E040E260E470E084E794E00E94870C53
:101EB00020E335E040E260E670E082E194E00E94D9
:101EC000870C22E235E040E260E870E082E194E0D5
:101ED0000E94870CEEE0F4E08491882349F0CFE083
:101EE000D4E00E94D20BFE01849121968111F9CF9A
:101EF0008EE080934C078AEF90E090934E0780939A
:101F00004D0710E07ACE113009F06BCE6FEF80E80C
:101F100091E00E9473048F3F09F02DC2E2EAF4E0E1
:101F20008491882349F0C3EAD4E00E94D20BFE01D9
:101F3000849121968111F9CF8DE080934C0782E343
:101F400090E090934E0780934D0710E056CE1130ED
:101F500009F047CEE2EAF4E08491882369F3C3EA0A
:101F6000D4E00E94D20BFE01849121968111F9CF19
:101F7000E3CF133008F040CEE3E8F4E08491882307
:101F800049F0C4E8D4E00E94D20BFE01849121966E
:101F90008111F9CF6FEF80E891E00E9473048F3FC9
:101FA00009F472C281E30E94D20B8DE00E94D20B31
:101FB0008AE00E94D20B8BE080934C078AEF90E07E
:101FC00090934E0780934D0710E017CE163009F41A
:101FD000C7C1812F0E941B0C882309F40DCEE5E5B3
:101FE000F4E08491882349F0C6E5D4E00E94D20B46
:101FF000FE01849121968111F9CF60E480E891E09F
:102000000E94F20BE2E1F4E08491882349F0C3E1FD
:10201000D4E00E94D20BFE01849121968111F9CF68
:1020200060E480EC91E00E94F20BEEE0F4E0849139
:10203000882349F0CFE0D4E00E94D20BFE018491C6
:1020400021968111F9CF82E180934C0788EB9BE0C8
:1020500090934E0780934D0710E0CFCD113009F0DB
:10206000C0CD8CE080930B0786E080934C0710E096
:10207000C4CD81E090E09093C5008093C400ECEE65
:10208000F4E08491882349F0CDEED4E00E94D20B95
:10209000FE01849121968111F9CF85E080934C0750
:1020A00089E190E090934E0780934D0710E0A5CD15
:1020B000153009F44BC18EEF810F823010F01111F1
:1020C0009BCD10924C0710924E0710924D07109224
:1020D0000B0710E692CD81E090E09093C5008093CD
:1020E000C400E3E1F5E08491882349F0C4E1D5E040
:1020F0000E94D20BFE01849121968111F9CF82E0DA
:1021000080934C0789E190E090934E0780934D07B0
:1021100010E073CD8F3009F4A6C1812F0E941B0CF3
:10212000882309F469CD6CE37DE08CE390E00E94A4
:1021300094048C01E7E2F4E08491882349F0C8E23A
:10214000D4E00E94D20BFE01849121968111F9CF37
:10215000C8010E945F0D8DE00E94D20B8AE00E94B0
:10216000D20B83E180934C078AEF90E090934E0767
:1021700080934D0710E041CD113009F032CD25E5B7
:1021800035E040E460E071E086E494E00E94870C72
:102190002AE435E040E460E471E082E194E00E94EA
:1021A000870C82E20E94D20B8CE20E94D20B66E086
:1021B0008FE390E00E94730490E00E945F0DE9E0DD
:1021C000F4E08491882349F0CAE0D4E00E94D20B65
:1021D000FE01849121968111F9CF8FE080934C0705
:1021E0008AEF90E090934E0780934D0710E005CD65
:1021F000812F0E941B0C882309F4FECCE4E6F4E056
:102200008491882349F0C5E6D4E00E94D20BFE01F8
:10221000849121968111F9CF81E180934C078AEF57
:1022200090E090934E0780934D0710E0E6CC8CE051
:1022300080930B0784E080934C0710E0DECC1130D4
:1022400009F0CFCCCECD112309F462C0E5EEF4E065
:102250008491882309F4DCCDC6EED4E00E94D20B31
:10226000FE01849121968111F9CFD2CD82EC93E0C9
:102270000E946C0C882309F47ACCC0E8D1E00DC030
:10228000FCE5FF16F9F08E010F5F1F4F6FEFCE01D7
:102290000E9473048F116BCCE8010E94500CF82E41
:1022A00082E2F812EDCFC03CE1E0DE0731F06FEFE3
:1022B000CE010E9473048111E6CF81E080939907DB
:1022C00016E056CC0E94500CF82EDDCFE8EDF4E07D
:1022D0008491882349F0C9EDD4E00E94D20BFE011D
:1022E000849121968111F9CF85E30E94D20B8DE074
:1022F0000E94D20B8AE00E94D20B88E080934C07A8
:1023000082E390E090934E0780934D0710E075CCE8
:1023100020E130E03093C5002093C400ECEEF4E0FF
:102320008491882349F0CDEED4E00E94D20BFE01C7
:10233000849121968111F9CF83E080934C0729E1A4
:1023400030E030934E0720934D0757CC10924C0746
:1023500010924E0710924D0710920B0710E54DCCCE
:1023600082E180934C0789E190E090934E0780933F
:102370004D0710E042CC6FEF80EA90E00E947304BA
:102380008F3F09F49AC0E2E9F4E08491882349F090
:10239000C3E9D4E00E94D20BFE0184912196811101
:1023A000F9CF60E280EA90E00E94F20B02E114E0D3
:1023B000F8018491882349F0C3E1D4E00E94D20B54
:1023C000FE01849121968111F9CF60E280EC90E0CA
:1023D0000E94F20BF8018491882349F0C3E1D4E014
:1023E0000E94D20BFE01849121968111F9CF60E207
:1023F00080EE90E00E94F20BEEE0F4E084918823FE
:1024000049F0CFE0D4E00E94D20BFE0184912196E6
:102410008111F9CF80E180934C0782E390E09093A3
:102420004E0780934D0710E0E8CB809193078130F1
:1024300069F110919207909194078091950711236B
:1024400039F0C92FD82F89910E94D20B1150D9F79A
:1024500085E180934C078AEF90E090934E0780933C
:102460004D0710E0CACB113009F45DCE112329F0DD
:102470008EEF810F823008F0BFCB84E680930B078C
:1024800081E080934C0749CE82E38DCDE0919407A3
:10249000F0919507EF01219684918823C9F20E945B
:1024A000D20BFE01849121968111F9CFD1CF0E94E8
:1024B000500C8B3409F08DCBF2CBE6EBF4E0849139
:1024C000882309F4A7CFC7EBD4E00E94D20BFE010A
:1024D000849121968111F9CF9DCF0E94500C8C34AC
:1024E000D9F08F3409F075CB88EE93E00E946C0C24
:1024F000882309F46ECB0E94500C8D30A9F08032F5
:1025000009F067CB82EE93E00E946C0C882309F4FB
:1025100060CB1053106454CC8CED93E00E946C0C93
:10252000882309F456CBF5CF1053106349CC0E9491
:10253000980D811107C080910A078823C1F310927A
:102540000A0780E00895809190079091910708957F
:102550008091900790919107009711F480E0089581
:10256000019790939107809390070C94500C81E011
:1025700090914C07911180E008950F931F93CF9392
:10258000DF93182F062FE7E3F4E08491882349F0C6
:10259000C8E3D4E00E94D20BFE0184912196811100
:1025A000F9CF80E3810F0E94D20B8CE20E94D20B04
:1025B000802F90E00E945F0D8DE00E94D20B8AE098
:1025C0000E94D20B84E180934C0789E190E09093C4
:1025D0004E0780934D07DF91CF911F910F91089582
:1025E00090914C07911119C07093950760939407CF
:1025F0009B012F5F3F4FFB016491662379F0F90146
:1026000060E06F5F949131969111FBCF60939207D8
:1026100091E0909393070C94BD12089560E0F6CF7B
:1026200090914C07911108957093950760939407CA
:102630004093920710929307642F0C94BD128091DF
:102640004C07811103C081E080934C0708958BB142
:102650005A9A82FB882780F991E0892708951F9371
:10266000CF93DF93182F90914C07911121C0E8ED83
:10267000F4E08491882349F0C9EDD4E00E94D20BA4
:10268000FE01849121968111F9CF80E3810F0E9490
:10269000D20B8DE00E94D20B8AE00E94D20B86E121
:1026A00080934C0782E390E090934E0780934D0710
:1026B000DF91CF911F91089581115A9808959091BB
:1026C0009A0780914F079813FACF8091C00085FF39
:1026D000FCCF08958091F0078F3FF9F0209102011F
:1026E000289F9001112420583F4F309305012091DD
:1026F0000301829F9001112420583F4F309306011F
:1027000090910401899FC001112480589F4F90939C
:10271000070181E08093F30708958091020180937F
:10272000050180910301809306018091040180934B
:10273000070181E08093F30708951F920F920FB66F
:102740000F9211242F933F938F939F938091780042
:10275000909179002091EC073091ED07820F931F43
:102760009093ED078093EC072091E5072F5F20936E
:10277000E507322F3F73D9F4203471F090939C0712
:1027800080939B071092ED071092EC0782EC8093E8
:102790007C001092E50710C09093EF078093EE073E
:1027A0001092ED071092EC0788EC80937C008091EA
:1027B0007A00806480937A009F918F913F912F914E
:1027C0000F900FBE0F901F9018951F93CF93DF931C
:1027D000EC0105C00E94A8122196181309C0FE0141
:1027E00014911111F7CF81E0DF91CF911F910895DE
:1027F00080E0DF91CF911F910895CF9381E0809386
:10280000FF072091FD073091FE07C901880F991F2E
:10281000820F931F009741F0EAE0F1E0865F9E4F40
:102820001192E817F907E1F70E942713C82F60916A
:10283000FD077091FE078AE091E00E941D048C2F35
:102840000E945C131092F307CF9108952F923F924C
:102850004F925F926F927F928F92AF92CF92DF9260
:10286000EF92FF920F931F93CF93DF93CDB7DEB715
:102870002A970FB6F894DEBF0FBECDBF80917A00C5
:10288000806480937A0080919E07A09008017A2C42
:102890008A2C01E0811115C00E949712882311F142
:1028A000982F907F903609F447C0182F1F709033EF
:1028B00009F445C0903109F44FC080919E078823E8
:1028C00059F30E94B712882339F380919E07807FC5
:1028D00010929E07803F01F70E941F130E949712DB
:1028E0008111DECF80910001815080930001811120
:1028F00041C082E3809300018091E8079091E9074D
:10290000009709F0E1C08091EA079091EB070097EA
:1029100089F101979093EB078093EA07892B51F592
:102920001092FF0781E0809301018091F0078E3FB4
:1029300008F02BC48F5F32C010929E07ADCF0E946B
:10294000B712882309F4B9CF67EE77E0812F0E9490
:10295000F01280919E079ECF0E94A81290E0FC0189
:10296000E454F109E631F10508F0A7CFED55FF4F2A
:102970000C94C51D809101018823E9F0823009F48F
:1029800006C408F4F4C3833009F4DEC3843041F490
:102990008091F007893008F43FC488508093F00795
:1029A0000E946A138091F007882309F4E4C38F3FE3
:1029B00011F4109201018091F907882319F08150D8
:1029C0008093F9078091FA079091FB07009709F42B
:1029D00079C001979093FB078093FA0781E090916B
:1029E000F10791116FC02A960FB6F894DEBF0FBEA3
:1029F000CDBFDF91CF911F910F91FF90EF90DF90AE
:102A0000CF90AF908F907F906F905F904F903F905E
:102A10002F9008950E94A812982F8B7F883409F078
:102A20004CCF8091FF07811148CF8091F90788230F
:102A300079F08091F407482F4F7750E0212F30E054
:102A40004217530729F0983409F037CF87FD35CF67
:102A50002091FD073091FE076901CC0CDD1CC20EF0
:102A6000D31EC114D10489F0BAE0EB2EB1E0FB2EE5
:102A70009F830E94A812D7018D937D01B1E0CB1AEC
:102A8000D1089F81C114D10499F7983409F494C5F1
:102A900080E0812B8093F40789E18093F9070E94FD
:102AA0002713182F6091FD077091FE078AE091E0CF
:102AB0000E941D04812F0E945C131092F3078FEF78
:102AC0008093F10780E08FCF01979093E90780937F
:102AD000E807892B09F017CF82E08093010113CF1B
:102AE00081E895E00E94E513882309F4E6CE0E9470
:102AF000B712882309F4E1CE6DED77E0812F0E94B3
:102B0000F01202C00E94980D0E94B7128823D1F3E0
:102B1000812F0E942F130E945F13E0E0F8E30995D4
:102B200080919E07B7CE0E94A312429708F4C5CEAB
:102B30005FE9E52E57E0F52E0E94A812D7018D938C
:102B40007D01B1EBEB16B7E0FB06B1F7E1EBF7E087
:102B500095E02291322F330F832F880F880F830F38
:102B6000820F9827908327E0EF39F20791F7E0E68C
:102B7000F5E0AFE9B7E083E53491982F990F980F0E
:102B80002C91822F880F880F820F8327890F8D93B6
:102B9000319635E0E237F30779F781118ECE41E1C6
:102BA0006FE977E0812F0E94101380919E0772CE0B
:102BB0000E94A812823509F080CE0E94B7128823A5
:102BC00009F47BCE86E780939F0782E78093A00776
:102BD000A1EAB7E0EEE4F6E084918D93319646E009
:102BE000EE35F407C9F742E16FE977E0812F0E94E3
:102BF000101380919E074ECE89E795E00E94E51361
:102C0000882309F45ACE0E94B712882309F455CEBE
:102C100063E880E090E00E94830465ED77E0812F17
:102C20000E94F01280919E0735CE0E94A812803536
:102C300009F043CE0E94B712882309F43ECEF894DF
:102C4000A091EE07B091EF0740919B0750919C0730
:102C5000789481E780939F0780E78093A007209175
:102C6000FF072111B3C380910101843009F4AEC381
:102C7000E1E0823009F4AAC38091E8079091E90766
:102C8000892B09F0E2608091EA079091EB07892B8C
:102C900009F0E4608091F1078111E86030E08091F3
:102CA000F907882309F4B5C36091F4076F7770E0E2
:102CB000812F90E0FF24F394F0E06817790709F47E
:102CC000F12C8F2D9F2F822B932B892B09F0E06104
:102CD000E093A1079091FD078091FE079093A207D2
:102CE0008093A307809108018093A4072091E607B1
:102CF0003091E7070E94CB1D70588F4F9F4FAA2736
:102D0000BB278093A5079093A6078091F2078B5B62
:102D10000024440F551F001C440F551F001C452F55
:102D2000502D840F8093A70749E06FE977E0812F4A
:102D30000E94101380919E07ADCD0E94A812893485
:102D400009F421C308F012C1833409F42EC384347A
:102D500009F0B3CD0E94B712882309F4AECD0E94CA
:102D6000A312892B09F4FBC10E94A812813108F03B
:102D7000F6C190E790939F0794E69093A007809305
:102D8000A107682F70E02BE0829FF0011124E1572A
:102D9000FA4F54915093A2072BE0269FC001279F22
:102DA000900D112483579A4FFC0125913491F9011C
:102DB0008491882309F405C43196A5E001C0A42FAD
:102DC00041E04A0FB0E0A156B84F8C938491319600
:102DD0008111F5CF8BEF840F8093A307852F807F20
:102DE00009F002CF8BE0869FF001879FF00D112440
:102DF000EE56FA4F25913491869FF001879FF00D92
:102E00001124EC56FA4F85919491009709F4ECCE79
:102E1000E42FF0E0E156F84F2083E1E0E40FF0E02A
:102E2000511183C34E5FE156F84F8083DDCE0E947F
:102E3000A812823509F4A4C1833509F03ECD0E9461
:102E4000A312039708F48BC10E94A8128093020179
:102E50000E94A812809303010E94A812809304018B
:102E60000E946A138DE680939F0783E78093A007F3
:102E7000809102018093A107809103018093A207B2
:102E8000809104018093A30745E06FE977E0812FEB
:102E90000E94101380919E07FDCC0E94A8128235DB
:102EA00009F4BCC108F425C1833509F4E4C18735B0
:102EB00009F003CD0E94A312029708F450C10E94AA
:102EC000A812F82E0E94A8122F2D30E0382B309334
:102ED000EB072093EA072115310581F08091FF0768
:102EE00081110CC08091E8079091E907009719F0D3
:102EF0002817390718F484E0809301018CE6809349
:102F00009F0787E78093A0072093A1073093A2072C
:102F100044E06FE977E0812F0E94101380919E07B3
:102F2000B9CC0E94A812843409F438C1833509F45D
:102F300011C1833409F0C1CC0E94B712882309F46F
:102F4000BCCC80919E078111A5CC85E680939F071C
:102F500083E68093A0078092A10743E06FE977E0C2
:102F6000812F0E94101380919E0794CC823509F422
:102F7000A9C1873509F0A1CC0E94B712882309F4B2
:102F80009CCC0E94A312029708F45FC20E94A81270
:102F9000682E0E94A812382E20E1261508F4DFC002
:102FA0000E94A312232D30E08217930708F4D7C0A4
:102FB00080E780939F0787E78093A0076092A1072F
:102FC000462D50E05A8349835BE0659EF001112451
:102FD000E157FA4F44908BE029813A81829FF001BA
:102FE000839FF00D1124E557FA4F459154915E836C
:102FF0004D836A01842D8F70502E01C0550C8A9527
:10300000EAF7531408F4ABC047FCA0C2332009F41C
:103010009FC23510A4C042EA57E08FEF830D282FDE
:1030200030E03C832B832D55384F790149875A87EF
:103030000E94A81249855A85DA018D93AD01AE151B
:10304000BF05A1F747FC06C34110ADC26091A207BE
:10305000862F90E02BE049815A81249FF001259F23
:10306000F00D1124EE56FA4F45915491A981BA8181
:103070002A9FF0012B9FF00D1124EC56FA4F259159
:1030800034912115310521F44110F5C22EEF30E0C5
:103090008417950708F463C02817390708F45FC040
:1030A00023EA37E04B815C814F5F5F4FED81FE810A
:1030B0004E0F5F1F04C0D9016D919D01670176011C
:1030C000FFEFEF1AFF0AC60128873F8349875A8717
:1030D0000E94830449855A8528853F81E416F506B8
:1030E00051F7351408F047C247FCCBC2F32C6A01F4
:1030F00034C28F3409F0E1CB0E94A312892B79F1FD
:103100000E94A812823058F5811186C194E09093F4
:1031100001012091EA073091EB072115310539F0C3
:103120004091E8075091E9072417350720F01092E5
:10313000E9071092E8079CE690939F079FE690931B
:10314000A0078093A10709CF8091F0078A3FE8F498
:103150008B5F24CC0E94A312892B09F039C16FEC3C
:1031600077E0812F0E94F01280919E0793CB8130EF
:1031700009F4DBCB15CC109201010E94FD131BCC8E
:103180008DE680939F0782E771CE8FEF07CC809109
:10319000F007823008F440C0815000CC0E94B71282
:1031A000882309F48ACB0E94A312892BC1F20E94C2
:1031B000A8128A15A0F695E690939F0794E690933F
:1031C000A0078093A10790E0880F991F880F991F8F
:1031D0008E589E4FFC0125913491F90184918823EA
:1031E00009F4ECC13196A4E001C0A42F41E04A0FDC
:1031F000B0E0A156B84F8C93849131968111F5CFF0
:103200008CEF840F8093A2076FE977E0812F0E94F3
:10321000101380919E073ECB80E0C0CB8CE680935C
:103220009F0782E78093A0078091FF07811107C065
:1032300090910101923019F081E0943009F480E01E
:103240008093A1079091EA078091EB079093A207E2
:103250008093A3079091E8078091E9079093A407D2
:103260008093A50747E06FE977E0812F0E94101354
:1032700080919E070FCB0E94A312029708F46FCF94
:103280000E94A812F82E0E94A8122F2D30E0382B91
:103290003093E9072093E8072115310571F08091FB
:1032A000EA079091EB07009719F02817390728F4DF
:1032B0001092FF0783E0809301018CE680939F07C3
:1032C00083E720CE0E94B712882309F4F6CA0E9431
:1032D000A312892B09F443CF0E94A812813108F070
:1032E0003ECF90E790939F0792E79093A00780933B
:1032F000A107282E312C2BE0829FF0011124E157E9
:10330000FA4FD4908BE0829DF001839DF00D112443
:10331000E557FA4F459054908D2D807F09F498C061
:1033200072013FEFE31AF30A6FEFC2010E947304C8
:103330008F3F09F4A5C046E8D41609F4D4C030E2A2
:10334000882309F4CDC08093A307E4EA4E2EE7E07A
:103350005E2E21E007C0D2018D932D012F5F231730
:1033600079F076016701BFEFCB1ADB0A6FEFC70177
:1033700028873F830E94730428853F818111EBCF0A
:1033800044E0420F73C00E94B712882309F495CA23
:1033900080919E0781117ECA62E775E0812F0E94AD
:1033A000F01280EF80939E078CCA0E94B712882388
:1033B00009F483CA80919E0781116CCA80E78093CB
:1033C0009F0783E68093A00781E1BBCEE0E054CC69
:1033D0000E94A812F82E871508F0C1CE8093E3074B
:1033E0008091F107863018F085E08093F107109204
:1033F000FB071092FA070E94B712882309F45DCAEE
:1034000085E680939F0783E78093A007F092A1074A
:10341000A4CD80E090E057CC1092FF0793E090930A
:1034200001012091E8073091E9072115310541F0AC
:103430004091EA075091EB072417350708F47BCE3B
:103440001092EB071092EA0776CE0E94A81287CE60
:103450006FEFC2010E9473048093A307F1E0DF16AF
:1034600009F443C08F3F71F145E021E02093A207AA
:103470006FE977E0812F0E94101380919E070ACA9E
:103480008BE0829DF001839DF00D1124E057FA4FEF
:1034900085919491009721F1FC012491222301F15F
:1034A0000196E4E001C0E42F41E04E0FF0E0E15668
:1034B000F84F2083FC01249101962111F4CF2CEFC9
:1034C000240FD4CF8BE0829DF001839DF00D112459
:1034D000E057FA4FE491E093A30745E021E0C6CF1F
:1034E00044E020E0C3CF30E42BCF6FEFC201019660
:1034F0000E9473048093A4079091A30798239F3F91
:1035000019F046E022E0B2CF8BE0829DF001839D6E
:10351000F00D1124E057FA4F859194918093A30701
:103520009093A40746E022E0A1CFE156F84F308304
:10353000E2E0E40FF0E0E156F84F8083E3E0E40FCF
:10354000F0E04C5FE156F84F90834ECB311063CDE5
:10355000151488F4F12C01C0690196012F5F3F4FCB
:103560006FEFC60128873F830E948304F394288568
:103570003F81F51488F3BEE06B1609F44AC0B61516
:10358000C8F1ECE06E1601F1FDE06F12E6CC3320DD
:1035900031F08091A2079FEF980F9E3F08F084E1E1
:1035A00080939D07DACC8091A30790E0982F88271D
:1035B0006091A207862B4ECD80E86BCA80E044E084
:1035C00021CE80E045E008CC332061F18091A20754
:1035D0002091A307922F982B29F190E0922B813014
:1035E000A2E09A07FCF4282F892F2093FD078093EF
:1035F000FE07CDCF2FE06216E1F030E16312ADCCD3
:103600003320A9F08091A2078F3F89F08093F207C1
:10361000A4CC332051F08091A2078F3F31F08093EA
:10362000E4079BCC22E380E0E0CF84E1F8CF80E8A0
:10363000EDCF332019F18091A2072091A307922F9B
:1036400098239F3FD9F090E0922B9093E7078093C7
:10365000E60783CC6091A207E3EAF7E0862F01C07A
:103660008191882309F47BCDEE15FF05C9F76F3FE3
:1036700009F016CD74CD2EEF3FEF0ACD84E992E02C
:10368000E4CF6A01332009F465CF8FEFC81AD80A56
:1036900060E0CA010E948304FF24F394F30CF51444
:1036A00008F45BCF68CF1F93CF93DF93EC010E94A8
:1036B0002614882321F08091FF07882329F080E0D9
:1036C000DF91CF911F9108950E942713182F6091C9
:1036D000FD077091FE07CE010E941D04812F0E94FC
:1036E0005C131092F30781E0DF91CF911F91089551
:1036F0002091F5073091F6074091F7075091F807B0
:1037000065E074E888E098E00E94821D6F5F7F4F5B
:103710008F4F9F4F6093F5077093F6078093F707DD
:103720009093F8078091F7079091F80708952091FA
:10373000F5073091F6074091F7075091F80765E0DB
:1037400074E888E098E00E94821D6F5F7F4F8F4F82
:103750009F4F6093F5077093F6078093F707909358
:10376000F8078091F7079091F80796958795089547
:10377000E82F2091F5073091F6074091F707509117
:10378000F80765E074E888E098E00E94821D6F5FAA
:103790007F4F8F4F9F4F6093F5077093F60780938D
:1037A000F7079093F8072091F7073091F807AE2FAD
:1037B000B0E00E94CB1D0895FC012091F5073091E7
:1037C000F6074091F7075091F80765E074E888E044
:1037D00098E00E94821D6F5F7F4F8F4F9F4F6093D5
:1037E000F5077093F6078093F7079093F807A09179
:1037F000F707B091F8079F010E94CB1D08950E9422
:103800001A040E94E70C6FEF7FEF84E090E00E94C3
:1038100094049093F6078093F5076FEF7FEF86E0AF
:1038200090E00E9494049093F8078093F707C0906B
:10383000F507D090F607E090F707F090F80723EF30
:10384000C20E2DE0D21EE11CF11C6C2D84E090E034
:103850000E948304B7018827992786E090E00E94A0
:10386000830482EC80937C0082E880937A0040E4B9
:1038700080E090E0DC0120917A00206420937A00BF
:10388000880F991FAA1FBB1F20917A0026FDFCCF2D
:10389000209178003091790020FF02C0E1E08E276E
:1038A000415049F74091F5075091F6076091F707AD
:1038B0007091F807482759276A277B274093F50717
:1038C0005093F6076093F7077093F80764E972E086
:1038D00088E090E00E9494049093E7078093E607C5
:1038E00060E88AE090E00E9473048093F20762E34C
:1038F00070E082E090E00E9494049093FE07809331
:10390000FD078130924070F060E083E090E00E941B
:1039100083048091FD079091FE0799279093FE07FD
:103920008093FD0764E18CE090E00E947304809333
:103930009D07811103C084E180939D0764E18CE0C1
:1039400090E00E9473048093E4078FEC80937A00E8
:103950007894109108012091F5073091F607409175
:10396000F7075091F80765E074E888E098E00E9456
:10397000821D6F5F7F4F8F4F9F4F6093F50770934E
:10398000F6078093F7079093F8072091F707309197
:10399000F807A12FB0E00E94CB1DAA27BB27E82F74
:1039A0008093E307CFEFC10FD0E08091FA079091A9
:1039B000FB07892B09F05AC0123008F49AC02091F5
:1039C000F5073091F6074091F7075091F80765E049
:1039D00074E888E098E00E94821D6B017C012FEF63
:1039E000C21AD20AE20AF20AC092F507D092F6078A
:1039F000E092F707F092F8072091F7073091F80767
:103A0000DE010E94CB1DAA27BB278E1708F06AC0D3
:103A10008093E3079601A701F0919D07E090E407EA
:103A200082E3E89E7001112465E074E888E098E084
:103A30000E94821D6F5F7F4F8F4F9F4F6093F507EE
:103A40007093F6078093F7079093F8072091F70794
:103A50003091F807D7010E94DA1D22E3F29F800D12
:103A6000911D11249093FB078093FA07F0E0EE0F6D
:103A7000FF1FEE0FFF1FEC58FE4F85919491FC0144
:103A800009950AC08091FF078823D1F00E9426146F
:103A90008091F30781110DC08091F107882391F384
:103AA00081508093F1070E9426148091F3078823A8
:103AB00099F38091FF07882331F01092F307ECCF40
:103AC000E091E30772CF0E942713F82E6091FD0763
:103AD0007091FE078AE091E00E941D048F2D0E94E4
:103AE0005C13EBCF61E0680F6093E3079601A701D9
:103AF00093CF2091F5073091F6074091F707509149
:103B0000F8078ACFDB018F939F930E94E11DBF913D
:103B1000AF91A29F800D911DA39F900DB29F900D1C
:103B200011240895AA1BBB1B51E107C0AA1FBB1F8C
:103B3000A617B70710F0A61BB70B881F991F5A9539
:103B4000A9F780959095BC01CD010895052E97FBAE
:103B50001EF400940E94BD1D57FD07D00E94EC1D6D
:103B600007FC03D04EF40C94BD1D50954095309544
:103B700021953F4F4F4F5F4F0895909580957095D9
:103B800061957F4F8F4F9F4F0895EE0FFF1F059058
:103B9000F491E02D0994A29FB001B39FC001A39FAF
:103BA000700D811D1124911DB29F700D811D112476
:103BB000911D08950E94CB1DB7FF0895821B930BA2
:103BC00008950E94CB1DA59F900DB49F900DA49FBA
:103BD000800D911D11240895A1E21A2EAA1BBB1B72
:103BE000FD010DC0AA1FBB1FEE1FFF1FA217B307C9
:103BF000E407F50720F0A21BB30BE40BF50B661FDF
:103C0000771F881F991F1A9469F7609570958095A2
:103C100090959B01AC01BD01CF010895F894FFCFB1
:0A3C2000320380808080808007005E
:00000001FF
