:100000000C941A040C9437040C9437040C943704A1
:100010000C9437040C9437040C9437040C94370474
:100020000C9437040C9437040C9437040C94300E61
:100030000C9437040C9437040C9437040C94370454
:100040000C9437040C9437040C94A00E0C94780E86
:100050000C9437040C9438150C9437040C94370422
:100060000C9437040C9437047F10E4129E10A610F1
:100070003F0F66103F0F970F3F0F13123F0F3F0FB9
:100080003F0F3F0F0313D1108E1203133F0F5C106D
:10009000D4125C10200F620F620F200F620F620FEC
:1000A000620F620F620F620F620F620F620F620FC8
:1000B000620F620F620F620F620F620F620F620FB8
:1000C000620F620F620F620F620F620F620F620FA8
:1000D000620F620F620F0A10620F620F620F620FEF
:1000E000DB0FDB0FDB0FDB0FDB0FDB0FDB0FDB0FC0
:1000F000DB0FDB0F620F620F620F620FD90F620F0F
:10010000620F620F620F620F620FD00FC70F620F94
:10011000620F620F620F620F620F620F620FBE0FFB
:10012000620F620F620F9F0F620F620F620F620F0A
:10013000620F620F620F620F620F620F620F620F37
:10014000620F620F720F7F1074129E10A610390F8B
:1001500066107C11571224111012F411A111BD1157
:100160004011F010D2104A12F010C51050103D127C
:100170005C100519E018F715F715F715F715F715C1
:10018000F7159A186418F715F715F2176617F7158B
:100190004D17F715F7152917E216F715BF16FB01CE
:1001A000DF06F2015F05ED014807E701E70CE10119
:1001B000F805D901A009CC01AD07BE018E084D6537
:1001C00074616D6F7270686F73697300496E7465E6
:1001D00072666572656E6365004D6574656F7273F6
:1001E0000054776973740044726F707300526169D0
:1001F0006E00537061726B6C6573005761766500B9
:10020000000092012403B6044806DA076C09FE0ACE
:10021000900C210EB30F4411D5126614F7158717F1
:100220001819A81A381CC71D561FE520742202246D
:1002300090251E27AB28382AC42B502DDC2E673082
:10024000F1317C3305358E3617389F39273BAE3C6C
:10025000343EBA3F3F41C3424744CB454D47CF4868
:10026000504AD14B504DCF4E4D50CB514853C354B3
:100270003E56B9573259AA5A225C995D0F5F846085
:10028000F8616B63DD644E66BE672D699B6A086C1E
:10029000746DDF6E4970B2711A738074E6754A77B7
:1002A000AD78107A707BD07C2F7E8C7FE880438283
:1002B0009C83F5844C86A187F688498A9A8BEB8CBF
:1002C0003A8E888FD4901F926893B094F7953C979C
:1002D0008098C299039B429C809DBC9EF79F30A151
:1002E00068A29EA3D2A405A636A766A894A9C1AA0F
:1002F000EBAB14AD3CAE62AF86B0A8B1C9B2E8B307
:1003000005B520B63AB752B868B97DBA8FBBA0BC64
:10031000AFBDBCBEC7BFD1C0D8C1DEC2E2C3E4C45A
:10032000E4C5E2C6DEC7D9C8D1C9C7CABCCBAECC0A
:100330009FCD8ECE7ACF65D04DD134D218D3FBD39A
:10034000DBD4BAD596D670D748D81ED9F2D9C4DA3C
:1003500094DB62DC2DDDF7DDBEDE83DF46E007E106
:10036000C6E182E23CE3F4E3AAE45EE510E6BFE620
:100370006CE717E8BFE866E90AEAABEA4BEBE8EBA3
:1003800083EC1CEDB3ED47EED9EE68EFF5EF80F0AE
:1003900009F18FF113F295F214F391F30CF484F454
:1003A000FAF46EF5DFF54EF6BAF624F78CF7F1F7AE
:1003B00054F8B4F813F96EF9C8F91FFA73FAC5FACC
:1003C00015FB62FBADFBF5FB3BFC7FFCC0FCFEFCC0
:1003D0003BFD74FDACFDE1FD13FE43FE71FE9CFE92
:1003E000C4FEEBFE0EFF30FF4EFF6BFF85FF9CFF50
:1003F000B1FFC4FFD4FFE1FFECFFF5FFFBFFFFFF00
:10040000574A41505F4355523A220050442C004114
:10041000494C0D0053454E4420004F5345440D00B8
:100420004641494C0D004E4E4543540075737920AA
:1004300000454E44204F4B0D0041494C0D00525297
:100440004F520D004B0D002C330D0A00220D0A00F7
:10045000222C220041542B434950534552564552B9
:100460003D300D0A0041542B4349505345525645E7
:10047000523D312C0041542B43495053454E444288
:1004800055463D0041542B43575341505F4355520D
:100490003D220041542B43574A41505F4355523D42
:1004A000220041542B43574A41505F4355523F0D60
:1004B0000A0041542B43495041505F4355523D225D
:1004C0000041542B43574D4F44455F4355523D0027
:1004D00041542B4349505354415F4355523D2200F0
:1004E00041542B4357444843505F4355523D302CB1
:1004F000310D0A0041542B4357444843505F435544
:10050000523D312C310D0A0041542B4349504D5579
:10051000583D310D0A0041542B434950434C4F5331
:10052000453D00415445300D0A0041542B55415280
:10053000545F4355523D313030303030302C382C00
:10054000312C302C320D0A0041542B5253540D0AD9
:100550000041540D0A0001000A006400E80310275E
:100560003235352E3235352E3235352E3000313993
:10057000322E3136382E31302E31003139322E3193
:1005800036382E31302E3100303132333435363773
:10059000383900574946495F594F4C4B4100C446D2
:1005A00014EF47FFC98BDDABFA28633BB829E6CFD0
:1005B0005245494E49540045544D41474943004F27
:1005C0004C4B415F424C5354003C00FA07013C0D38
:1005D0000100FEFF8001C70786000000000000C088
:1005E00001AA0786000000000000A0009007850017
:1005F0000000000000C00088078500000000000027
:10060000E0007B078500000000000000016807860D
:100610009305000000004001560786880500000091
:100620000040004507857B050000000060003107A1
:10063000856E050000000080001B07856005000036
:1006400000003F00050700060001000D000200F653
:1006500006013200010000020C00E1060014000156
:1006600000FE000D00CC060014000000FE00080093
:10067000B6060194020100FEFF0A009C06008000FD
:100680000000FE00245652534D4B237E594F4C4BD5
:10069000415F5746010002272302201741646A7513
:1006A00073742054656D7065726174757265205342
:1006B000656E736F720041646A75737420566F6C57
:1006C000746167652053656E736F72004566666579
:1006D00063742054696D652028416464292C20735B
:1006E000004566666563742054696D6520284D6910
:1006F0006E292C2073004E756D626572204F662046
:100700004C454473004150206D6F64653A20576931
:100710004669206368616E6E656C004150206D6FA4
:1007200064653A206E6574776F726B206D61736BD0
:10073000004150206D6F64653A2067617465776190
:1007400079204950004150206D6F64653A207365EF
:100750006C66204950004150206D6F64653A2070EE
:10076000617373776F7264004150206D6F64653AF6
:100770002073656C662053534944004E6574776F4F
:10078000726B204D61736B0047617465776179000E
:10079000495020286C6561766520626C616E6B2023
:1007A000666F722044484350290050617373776F1D
:1007B0007264206F6620415020746F20636F6E6EEC
:1007C00065637420746F0053534944206F66204161
:1007D0005020746F20636F6E6E65637420746F2099
:1007E000286C6561766520626C616E6B20666F7245
:1007F000204150206D6F6465290054435020506F94
:10080000727420746F206C697374656E0065727207
:100810006F72004D414749434F4B005245434F4E85
:100820004E454354005769466920596F6C6B6120EF
:10083000312E300011241FBECFEFD8E0DEBFCDBF78
:1008400011E0A0E0B1E0E0E2FFE302C005900D920C
:10085000AA30B107D9F728E0AAE0B1E001C01D92A3
:10086000A030B207E1F70E94841D0C948E1F0C94F7
:1008700000002898209A08950F92A5E0B1E02D91EC
:100880003D914C91DC01CB01880F991F860F971F7A
:10089000672B09F444C05FB7F8947D917A03612D0A
:1008A00008F46FEF289A660F10F4000001C0289832
:1008B000022E232F342F402D00002898000000C066
:1008C00000C076E0289A660F10F4000001C0289856
:1008D00000C07A9529F00000289800C000C0F2CF2F
:1008E0002898019781F07D910000289A660F10F4F6
:1008F000000001C028987A03612D00C0289808F4F0
:100900006FEF00C0CFCF00C0289A660F10F4000030
:1009100001C0289800C000C0000028985FBF0F9059
:10092000112408959C01F999FECF9FB7F894F99985
:10093000FECF32BD21BDF89A80B59FBF8F3F09F031
:100940000895862F08959C01F999FECF9FB7F894DA
:10095000F999FECF32BD21BDF89A80B5861719F0FE
:1009600060BDFA9AF99A9FBF0895EF92FF920F9394
:100970001F93CF93DF931F92CDB7DEB78C01E62E86
:100980006FEF79830E949204F82E6FEFC8010196F1
:100990000E9492042F2D30E0382B79812F3F8FEF6A
:1009A000380749F0C9010F90DF91CF911F910F9146
:1009B000FF90EF9008958E2D972F0F90DF91CF919C
:1009C0001F910F91FF90EF9008950F931F93AC012B
:1009D0000024440F551F001C440F551F001C452FB9
:1009E000502D5170411521E0520709F456C0382F9F
:1009F0003F734130A1E05A0748F0E0E0F2E0DF0148
:100A0000A41BB50BAD0120E4231B322FFA01EE0F1E
:100A1000FF1FE050FE4FA591B49131111AC0892FEC
:100A2000881F8827881F482F50E09D01DB010E9406
:100A30005A1F8B019C0110582F4F3F4F8827992731
:100A4000841B950B82279327840F951F1F910F916D
:100A500008954F3F5105F0F4FA01EE0FFF1FEE5FCE
:100A6000FD4F45915491FA01EA1BFB0B3E9FA001FB
:100A70003F9F500D11249A01205E3F4F0024220F0A
:100A8000331F001C220F331F001C232F302DA20FF9
:100A9000B31FC5CF303208F4C2CF892F881F8827F3
:100AA000881F282F30E088279927821B930B6827FF
:100AB0007927CB01820F931F1F910F9108950F93F8
:100AC0001F93CF93DF9300E010E08091FD0790919A
:100AD000FE070097A9F0ACE0B1E09C01220F331FA4
:100AE000280F391F265F3E4FEAE0F1E01082ED014A
:100AF000219718821C9233961396E217F307B1F7E9
:100B00008017910770F10E94601DEC010E94191D71
:100B10009E01220F331FC20FD31FC65FDE4F869583
:100B200086958695809588830E94191D8695869561
:100B30008695982F909599830E94191D8695869584
:100B40008695982F90959A838AEF90E00E94601D79
:100B5000080F191F8091FD079091FE0780179107DC
:100B600090F6081B190B8AE091E00E94D41C8111B9
:100B7000ACCFDF91CF911F910F910895FA0126E03C
:100B8000829FC0011124AC015527649F9001659F8D
:100B9000300D112420583F4F892F9927823091051D
:100BA00019F150F40097E1F0019779F4862F831B37
:100BB00080836183128208958330910559F00497F0
:100BC00021F4308311826283089560831182631B54
:100BD000628308951082862F831B81836283089528
:100BE0006083318312820895108261833283089575
:100BF0004F925F926F927F928F929F92AF92BF922D
:100C0000CF92DF92EF92FF920F931F93CF93DF93D8
:100C10000E94F91C5C010E94F91C4C01412C512CD2
:100C200020E030E0C090FD07D090FE072C153D0578
:100C300081F0960136952795369527953695279517
:100C400040E050E060E573EC80E090E00E94261FF9
:100C50002901B201C5010E94E5047C016090FD07F5
:100C60007090FE0761147104B1F0E301CC0FDD1F39
:100C7000C60DD71DC95FDE4F840181E0681A710877
:100C8000AE016FEF812F0E94BE050E0D1F1D239731
:100C90006114710491F781E6880E911C8DE3A80E12
:100CA000B11C8AE091E00E94D41C96018111BACF58
:100CB000DF91CF911F910F91FF90EF90DF90CF9038
:100CC000BF90AF909F908F907F906F905F904F906C
:100CD0000895D90126E0829FC0011124EFEFF0E0D2
:100CE000E61BF1094E9FB0014F9F700D1124605813
:100CF0007F4F9C013327542F571B529FF001539F66
:100D0000F00D1124E058FF4F892F9927823091056B
:100D1000B1F168F4009751F10197B9F4842F8F1B5A
:100D20008C9311964C93119712967C93089583306F
:100D3000910599F0049749F48F2F870F8C931196A2
:100D40007C93119712964C9308954C9311967C9333
:100D500011974F1B12964C9308957C93842F8F1BF1
:100D600011968C93119712964C9308954C938F2F54
:100D7000870F11968C93119712967C9308957C930C
:100D800011964C9311978F2F870F12968C9308957D
:100D90009A016F3F710559F050F06F3F91E079076C
:100DA00050F49EEF961B692F4FEF0C946906462F67
:100DB0006FEF0C94690660E04FEF0C9469066F9238
:100DC0007F929F92AF92BF92CF92DF92EF92FF926B
:100DD0001F93CF93DF930E94F91C3C01912C26E9CD
:100DE000A22E172D2091FD073091FE07232BA9F18C
:100DF000C92DD0E09AE0C92E91E0D92EBA2CB918AD
:100E0000E12CF12C21C06B2D663908F0665969314F
:100E100008F16951262F30E0B901660F771F620F84
:100E2000731FA601812F0E94C806195F8FEFE81A71
:100E3000F80A83E0C80ED11CB3942091FD073091CD
:100E4000FE07E216F30648F4EC16FD06E0F26E2DFE
:100E50006919DACF60E070E0E4CF8DE3680E711CB1
:100E6000939485E9891508F4912C8AE091E00E9419
:100E7000D41C8111B6CFDF91CF911F91FF90EF90DD
:100E8000DF90CF90BF90AF909F907F906F9008952C
:100E9000EF92FF920F931F93CF93DF9300D0CDB7C4
:100EA000DEB700E0E12CF12C10E08091FD0790917D
:100EB000FE078230910508F44DC0EFE0F1E0AC018F
:100EC000440F551F480F591F9A01245F3E4FDF0101
:100ED00012978C9113978C9314969C9113979C93D3
:100EE000908111969C933396E217F30781F7495F3F
:100EF0005E4F0023F1F0C701880F991FE80EF91E1D
:100F0000F694E794F694E794195F0150B701812FA6
:100F10000E94C8068AE091E00E94D41C8111C5CFCE
:100F20000F900F90DF91CF911F910F91FF90EF9055
:100F3000089549835A830E94191D182F83E20E9445
:100F40003B1D03E0080F44EFE42EFF24F394498196
:100F50005A81DCCF4AE051E0CCCF2F923F924F92A2
:100F60005F926F927F928F929F92AF92BF92CF9239
:100F7000DF92EF92FF920F931F93CF93DF93CDB742
:100F8000DEB72A970FB6F894DEBF0FBECDBF0E9422
:100F9000F91C4C0180E090E20E94601D5C010E94FF
:100FA000191D80FBCC24C0F8D12C442455244C18A6
:100FB0005D082EEFB21A4A245B244C0C5D1C80E0C5
:100FC00091E00E94601D6C010E94191D082F0170A4
:100FD00010E088279927801B910BE0E4CE0ED11CEE
:100FE000C826D926C601800F911F98878F830E943B
:100FF000F91C3C0180E090E20E94601D8C010E947F
:10100000191D80FBEE24E0F8F12C222433242E1845
:101010003F08105F0225132518012E0C3F1C0E946B
:10102000F91C5C010E94F91C6C0180E091E00E94B7
:10103000601D93959E838D8393013501560160E079
:1010400078E0C30129873A870E94E50429853A851B
:10105000820F931F9A8389839FE4690E711C60E657
:1010600070E0C5010E94E50480569F4F7C01ED8130
:10107000FE81AE0EBF1E8F819885880D991D9C83C1
:101080008B838091FD079091FE0729853A85892BF6
:1010900011F10AE011E0C12CD12CB701C901298757
:1010A0003A870E94E504BC017395A801892D0E942E
:1010B000C806840C951C29853A85220D331D9FEFA7
:1010C000C91AD90A0D5F1F4F8091FD079091FE0745
:1010D000C816D90610F38AE091E00E94D41C8B80D8
:1010E0009C8029813A818111AACF2A960FB6F89463
:1010F000DEBF0FBECDBFDF91CF911F910F91FF904B
:10110000EF90DF90CF90BF90AF909F908F907F90A7
:101110006F905F904F903F902F9008952F923F9245
:101120004F925F926F927F928F929F92AF92BF92F7
:10113000CF92DF92EF92FF920F931F93CF93DF93A3
:10114000CDB7DEB728970FB6F894DEBF0FBECDBF80
:10115000212C312C2FEF3FEF412C512C66246A9427
:10116000762C1C821B821D821E8265E6A62E6FECE9
:10117000B62E8091FD079091FE079A8389832817E8
:10118000390751F0892B09F47DC080E496E069812C
:101190007A810E94121F2B0198E8691693E1790663
:1011A00008F078C0E980FA80F3013D963F0187019D
:1011B0000150110917FD45C0C701880F991F8E0DF9
:1011C0009F1D9C01295F3E4F79018B809C802D8162
:1011D0003E81C12CD12C38872F8315C060E872E086
:1011E000681B790BA701892D0E94C806C40CD51C69
:1011F000820C931C0150110923E0E21AF1080F3F01
:101200003FEF1307F1F08F81988501968A9D900139
:101210008B9D300D9A9D300D112438872F83832F9D
:1012200099278C0D9D1D6816790600F3F301E81BC4
:10123000F90BCF018138F1E09F0780F26FEF70E08A
:10124000D1CF8AE091E00E94D41C29813A8181119A
:1012500090CF28960FB6F894DEBF0FBECDBFDF91BA
:10126000CF911F910F91FF90EF90DF90CF90BF90A3
:10127000AF909F908F907F906F905F904F903F9036
:101280002F900895412C512C98E8691693E1790626
:1012900008F488CF0E94F91C8D839E838BEA9AE222
:1012A0000E94601D7C018BEA9AE20E94601D8C0105
:1012B0008BEA9AE20E94601D6C018B819C818B5AA3
:1012C0009A4EE80EF91E8BEA9AE20E94601D0E0DFE
:1012D0001F1D0C0D1D1D800F911F9C838B830E9471
:1012E000191D803C50F4E090FD07F090FE074DE0A2
:1012F000642E712C212C312C5ACF80E090E10E9479
:10130000601D8C0180E090E10E94601D1801280E94
:10131000391E80E090E10E94601D8C0180E090E128
:101320000E94601DF0E23F1A200E311E280E391E69
:10133000E090FD07F090FE073DE0632E712C37CF63
:101340002F923F924F925F926F927F928F929F92D5
:10135000AF92BF92CF92DF92EF92FF920F931F93C3
:10136000CF93DF93CDB7DEB7C155D1090FB6F8944F
:10137000DEBF0FBECDBF1A8219821F861E861C8E4D
:101380001B8E19A618A61EAA1DAA50E040E0609662
:101390001FAE60978091FD079091FE079C01220F80
:1013A000331F820F931F009741F0EAE0F1E0865F60
:1013B0009E4F1192E817F907E1F79E012F5F3F4F0B
:1013C00029963FAF2EAF29972C5F3F4F2D963FAF09
:1013D0002EAF2D972A965FAF2A972B964FAF2B975C
:1013E00090E03FEF2E963FAF2E972B962EAD3FAD60
:1013F0002B97232B09F4CEC02996EEADFFAD29978C
:10140000028113812D96EEADFFAD2D972080299698
:10141000EEADFFAD2997C184D28425813681478006
:1014200050844385548527965FAF4EAF2797022C93
:10143000000C33083101660C771C620C731C5801D8
:10144000AA0CBB1CA501400F511FBA01645F7E4F5F
:101450004B01FA01E65FFE4F5F012B96EEACFFAC4D
:101460002B972F969FAF2F9708C0860C971CA60C22
:10147000B71CC114D10409F491C017FD43C0809179
:10148000FD079091FE0708171907E0F5C70195952C
:101490008795959587959595879595958795959534
:1014A000879560E072E0681B790B1616170654F5F5
:1014B000AE014E5B5F4F852D61962FAF61976296AF
:1014C0003FAF62970E94C80623968FAD2397F50120
:1014D000908161962FAD619762963FAD62979817A4
:1014E00008F4808324968FAD2497F4019291981785
:1014F00008F4808325968FAD2597F4019081981785
:1015000008F4808327964EAD5FAD2797440E551E95
:10151000020D131D51E0C51AD108E21AF30A1E1478
:101520001F040CF4A2CF2F969FAD2F972B962EADB4
:101530003FAD2B9733952996EEADFFAD29973183BB
:1015400020839F5F29962EAD3FAD2997235F3F4FA4
:1015500029963FAF2EAF29972D962EAD3FAD2D97F3
:10156000235F3F4F2D963FAF2EAF2D97953049F11A
:101570002996EEADFFAD29970190F081E02D2B96D5
:10158000FFAFEEAF2B972B962EAD3FAD2B97232BB6
:1015900009F032CF2E969FAF2E97D3CF2F969FADC7
:1015A0002F9761E0E61660E4F6060CF4BFCF2996AB
:1015B000EEADFFAD2997118210822E969FAF2E9728
:1015C000C0CF60963FAD60973111A7C02E969FADFA
:1015D0002E979F3F09F498C0E92EF12CE1E0F0E04E
:1015E000EC0FFD1F2DE0929FE00DF11D112440E056
:1015F00051E0518340830E94191D80FDBAC0DD2453
:10160000DA948DE08E9DF0018F9DF00D112461E044
:1016100070E06C0F7D1FE60FF71FD4828091FD07ED
:101620009091FE07969587950E943B1D2091FD079E
:101630003091FE0789011695079516950795169521
:10164000079501501109080F111DC9010E94601D65
:10165000980136952795820F931F0817190708F0F0
:1016600083C0AC01401B510B21E030E0241B350B43
:101670006091FD077091FE078617970710F0CB0168
:1016800001976DE06E9DF0016F9DF00D112461E0FA
:1016900070E06C0F7D1FE60FF71F280F391F328790
:1016A00021877FEFD71609F467C0242F952F8DE08F
:1016B0008E9D80018F9D100D1124E1E0F0E0EC0F74
:1016C000FD1F0E0F1F1FF8012283938380E090E41B
:1016D0000E94601D905E6091FD077091FE070E9460
:1016E000121FF801768365830E94F91CF801908728
:1016F00087830E94F91CF8019487838782E30E9404
:101700003B1D60968FAF60978AE091E00E94D41CE9
:10171000882381F059814A813DCE60962FAD609734
:10172000215060962FAF60978AE091E00E94D41C10
:101730008111F0CFCF5ADF4F0FB6F894DEBF0FBE46
:10174000CDBFDF91CF911F910F91FF90EF90DF9070
:10175000CF90BF90AF909F908F907F906F905F9051
:101760004F903F902F90089521E030E040E050E00E
:101770007FCFDD24D39445CF282F99CF2F923F924E
:101780004F925F926F927F928F929F92AF92BF9291
:10179000CF92DF92EF92FF920F931F93CF93DF933D
:1017A00000D000D0CDB7DEB730910A0140910B01D7
:1017B000A0900C01832F90E09A838983B0900D0153
:1017C0000B2D10E0B801A7E03A9F600D711D1124A8
:1017D0009B01359527953595279535952795209328
:1017E0000A01242F30E04901C0900E01EC2DF0E0F9
:1017F000FC83EB8367E0469FE00DF11D1124AF01F0
:1018000055954795559547955595479540930B01A7
:101810004A2D50E03A01D0900F016D2D70E0FB0190
:10182000A7E0AA9EE00DF11D1124F595E795F59529
:10183000E795F595E795E0930C01E090FD07F090B2
:10184000FE07B3E0EB16F10408F4BEC0E2E1F1E0FC
:101850001701220C331C2E0C3F1CB101645F7E4F1C
:101860002B01EC2CFB2C04C0832F90E09401A301EE
:10187000AF2DB0E0BA83A983DF011297BC900B2D86
:1018800010E013976EE0F69E800D911D1124800FDD
:10189000911F95958795959587959595879595959C
:1018A00087958C938E2C912C1496CC908C2D90E057
:1018B0009C838B83CF010497AEE0EA9E200D311DFF
:1018C00011246B817C81260F371F3595279535951F
:1018D00027953595279535952795DC012C936D2C0B
:1018E000712C2081622F70E00196BEE0DB9E400DDE
:1018F000511D1124460F571F5595479555954795EE
:101900005595479555954795DC014C9333963F2D5A
:10191000FB2CEC2CD22EE415F50509F0A5CFF10136
:10192000E95FFE4FC801880F991F880F991F880F24
:10193000991F801B910B09811A81080F191F15959A
:101940000795159507951595079500838B819C81C3
:10195000880F991F880F991F880F991F2B813C8131
:10196000821B930B880E991E959487949594879467
:10197000959487948182CB01880F991F880F991FB6
:10198000880F991F861B970B680E791E75946794B4
:10199000759467947594679462820F900F900F907E
:1019A0000F90DF91CF911F910F91FF90EF90DF90FB
:1019B000CF90BF90AF909F908F907F906F905F90EF
:1019C0004F903F902F900895EDE0F1E0ABCF0F9353
:1019D0001F93CF93DF938091FD079091FE079C01A9
:1019E000220F331F820F931F009741F0EAE0F1E0CE
:1019F000865F9E4F1192E817F907E1F700E010E0CB
:101A00000E94BE0B8091FD079091FE078017910701
:101A1000E0F00E94601DEC010E94191DAE01440F10
:101A2000551F4C0F5D1F465F5E4F6FEF0E94BE0556
:101A30008CEB92E00E94601D080F191F8091FD073A
:101A40009091FE078017910720F7081B190B8AE079
:101A500091E00E94D41C8111D3CFDF91CF911F91CF
:101A60000F910895E0919A0721E02E0F2F71909128
:101A70004F07291309C09091C10090629093C10053
:101A800090914F072917B9F3F0E0E45FF84F808396
:101A9000F89420939A078091C10080628093C100DE
:101AA00078940895EF92FF920F931F93CF932FEFA7
:101AB000260F662331F18C010F5F1F4F7801E20E74
:101AC000F11C0BC0C23299F08C2F0E94320DC8015C
:101AD0000E151F05B1F00F5F1F4F6FEF0E949204AC
:101AE000C82F882371F0CC3511F0CC3259F78CE532
:101AF0000E94320D8C2F0E94320DC8010E151F0559
:101B000051F7CF911F910F91FF90EF900895CF93D0
:101B1000DF93813069F1811124C0E1ECF4E084911C
:101B2000882349F0C2ECD4E00E94320DFE0184917A
:101B300021968111F9CF83E30E94320D8DE00E943E
:101B4000320D8AE00E94320D8CE080934C078AEFC0
:101B500090E090934E0780934D0780E0DF91CF9106
:101B6000089582508230C8F280E0DF91CF910895CD
:101B700081E0DF91CF910895909198078091970728
:101B80009817E1F3E92FF0E0E05BF84F80819F5F69
:101B90009F73909398072091970730E0291B310994
:101BA0002F7333272032310509F008955A9808958C
:101BB0001F93CF93DF93EC0105C00E94BC0D2196CB
:101BC000181309C0FE0114911111F7CF81E0DF91C4
:101BD000CF911F91089581E08093990780E0DF9174
:101BE000CF911F910895DF92EF92FF920F931F9371
:101BF000CF93DF937B01D42E8901EC012196FC0168
:101C00008491882339F00E94320DFE01849121963F
:101C10008111F9CF6FEFC7010E9492048F3FA9F4A1
:101C2000E8012196F8018491882339F00E94320D51
:101C3000FE01849121968111F9CFDF91CF911F91FF
:101C40000F91FF90EF90DF9008956D2DC701DF9108
:101C5000CF911F910F91FF90EF90DF900C94520D58
:101C60001F920F920FB60F9211248F939F9381E0D2
:101C700080930A0780914D0790914E07009729F0B5
:101C8000019790934E0780934D0780910B0788230F
:101C900019F0815080930B079F918F910F900FBE89
:101CA0000F901F901895529A81E080934C0782E024
:101CB0008093C00021E030E03093C5002093C40041
:101CC00098E99093C10096E09093C2001092800032
:101CD00021EE34E0309389002093880080936F00D8
:101CE0008CE080938100109285001092840008950A
:101CF0001F920F920FB60F9211248F939F93EF9321
:101D0000FF9380914F07E82FF0E0E45FF84F908158
:101D10009093C6008F5F8F7180934F0790919A07C1
:101D2000891305C08091C1008F7D8093C100FF9110
:101D3000EF919F918F910F900FBE0F901F9018956C
:101D40001F920F920FB60F9211242F938F939F9390
:101D5000EF93FF939091C60080919707E82FF0E0F2
:101D6000E05BF84F90838F5F8F738093970720918C
:101D7000980790E0821B91098F739927CA970CF0FE
:101D80005A9AFF91EF919F918F912F910F900FBED3
:101D90000F901F901895EF92FF920F931F93CF9380
:101DA000DF93EC018EE5E82E85E0F82E14E000E0EC
:101DB000F70125913491C217D307D0F080E08F5FEF
:101DC000C21BD30BC217D307D0F7882389F001E0D9
:101DD000805D0E94320D115082E0E81AF1081F3F29
:101DE00039F7DF91CF911F910F91FF90EF900895F8
:101DF000011104C01111EFCF80E0EACF80E0E7CFFE
:101E0000EF92FF920F931F93CF93DF9380919007F0
:101E100090919107892B71F441C00E94BC0D809173
:101E20009007909191070197909391078093900765
:101E3000892BA1F190919807809197079813EDCF86
:101E400090914C07992309F1C0910B07C1111DC056
:101E500020914D0730914E07232BB9F4492F50E0C4
:101E6000FA013197E631F10588F4EC5CFF4F0C94F0
:101E7000451F813009F4FDC38250823030F484E67E
:101E800080930B0781E080934C07C0E08C2FDF919B
:101E9000CF911F910F91FF90EF9008959091980727
:101EA00080919707981761F20E94BC0DC82F80910E
:101EB0009907813079F04C2F50E0FA013A97E935D3
:101EC000F10520F081E080939907BACFE65BFF4FE0
:101ED0000C94451FCD3019F0CA3009F0B1CF1092E3
:101EE0009907AECF8CE294E00E94D80D882351F37D
:101EF00081E08093990790914C07992331F280916A
:101F000096078F5F80939607833008F4BECF913099
:101F100071F0E8E4F5E08491882349F0C9E4D5E064
:101F20000E94320DFE01849121968111F9CF84E641
:101F300080930B0781E080934C07C0E0A7CF81E33B
:101F400094E00E94D80D882309F4BCCF85E09091DD
:101F50004C07992309F499CF10929607C0910B076B
:101F6000C11193CF492F50E0FA013197E631F105C5
:101F700008F08CCFED55FF4F0C94451F84E494E09E
:101F80000E94D80D882309F49DCF81E0E0CF89E33A
:101F900094E00E94D80D882309F494CF83E0D7CF32
:101FA0008EE394E00E94D80D882309F48BCF82E061
:101FB000CECF84E0CCCF0E94BC0D8C3209F082CF12
:101FC0000E94BC0D833409F41DC480538A3008F08C
:101FD00079CF0E94BC0D90ED980F9A30D0F38C32DF
:101FE00009F070CF84E194E00E94D80D882309F4B1
:101FF00069CF0E94BC0D8F3409F423C4863409F0E4
:1020000061CF8FE094E00E94D80D882309F45ACF65
:1020100083E09DCF0E94BC0D833409F4F9C289345A
:1020200009F00ECF8BE094E00E94D80D882309F4CC
:1020300007CF0E94BC0DC0EDC80FCA3008F000CF1A
:102040000E94BC0D8C3209F0FBCE0E94BC0D90EDBD
:10205000980F9A3008F0F4CE00E010E09801220FBB
:10206000331F000F111F000F111F000F111F020F50
:10207000131F080F111D005311090E94BC0D90ED94
:10208000980F9A3058F38A3309F0DACE011511050A
:1020900009F4D6CE1093910700939007C061F6CE55
:1020A000843009F4EDC2813039F480914D0790916C
:1020B0004E07892B09F0E9CE10924C0710924E077B
:1020C00010924D0710920B07C0E0E0CEE3E2F5E07E
:1020D0008491882349F0C4E2D5E00E94320DFE01CC
:1020E000849121968111F9CF87E080934C0789E193
:1020F00090E090934E0780934D07C0E0C7CE81E0FB
:1021000090E09093C5008093C400E1E5F5E08491F0
:10211000882349F0C2E5D5E00E94320DFE0184918A
:1021200021968111F9CF82E080934C0789E190E0FC
:1021300090934E0780934D07C0E0A8CE8CE080932B
:102140000B0784E080934C07C0E0A0CE81E090E0D4
:102150009093C5008093C400EAE2F5E0849188235F
:1021600049F0CBE2D5E00E94320DFE018491219628
:102170008111F9CF85E080934C0789E190E090933D
:102180004E0780934D07C0E081CE813009F074CEB8
:1021900010924C0710924E0710924D0710920B07A9
:1021A00075CE80E00E94870D882309F46ECEE2EAA6
:1021B000F4E08491882349F0C3EAD4E00E94320D10
:1021C000FE01849121968111F9CF81E180934C0722
:1021D0008AEF90E090934E0780934D07C0E056CE73
:1021E0009F3009F4DEC29F3009F44FCE0E94870D64
:1021F000882309F44ACE6CE37DE08CE390E00E94F2
:10220000B5048C01E5E6F4E08491882349F0C6E644
:10221000D4E00E94320DFE01849121968111F9CF04
:10222000C8010E94CB0E8DE00E94320D8AE00E9410
:10223000320D83E180934C078AEF90E090934E0734
:1022400080934D07C0E022CE813009F015CEE4E541
:10225000F4E08491882351F005E514E00E94320DEA
:10226000F80184910F5F1F4F8111F8CF8AE08093AE
:102270004C078AEF90E090934E0780934D0706CE6F
:10228000813009F0F9CD23E935E040E460E071E008
:1022900084E894E00E94F30D28E835E040E460E42F
:1022A00071E080E594E00E94F30D82E20E94320D1D
:1022B0008CE20E94320D66E08FE390E00E9492046F
:1022C00090E00E94CB0EE7E4F4E08491882351F083
:1022D00008E414E00E94320DF80184910F5F1F4F53
:1022E0008111F8CF8FE080934C078AEF90E09093B4
:1022F0004E0780934D07CACD813009F0BDCDE6E190
:10230000F5E08491882351F007E115E00E94320D39
:10231000F80184910F5F1F4F8111F8CF85E30E9470
:10232000320D8DE00E94320D8AE00E94320D88E06D
:1023300080934C0782E390E090934E0780934D0783
:10234000A5CD813009F098CDE0EEF4E084918823AA
:1023500051F001EE14E00E94320DF80184910F5FFC
:102360001F4F8111F8CF8DE080934C0782E390E0FE
:1023700090934E0780934D0789CD813009F07CCD35
:102380002BE735E040E260E470E082EB94E00E94ED
:10239000F30D2EE635E040E260E670E080E594E083
:1023A0000E94F30D20E635E040E260E870E080E551
:1023B00094E00E94F30DECE4F4E08491882351F062
:1023C0000DE414E00E94320DF80184910F5F1F4F5D
:1023D0008111F8CF8EE080934C078AEF90E09093C4
:1023E0004E0780934D0752CD813009F045CD6FEFF8
:1023F00080E891E00E9492048F3F09F069C1E0EE0D
:10240000F4E08491882309F4AECF01EE14E00E9439
:10241000320DF80184910F5F1F4F8111F8CFA3CFC8
:10242000833008F032CDE1ECF4E08491882349F068
:10243000C2ECD4E00E94320DFE01849121968111FC
:10244000F9CF6FEF80E891E00E9492048F3F09F48A
:102450000EC181E30E94320D8DE00E94320D8AE0B0
:102460000E94320D8BE080934C078AEF90E09093AE
:102470004E0780934D07C0E009CD853009F093C029
:1024800010924C0710924E0710924D0710920B07B6
:10249000C0E5FCCC863009F040C082E180934C0757
:1024A00089E190E090934E0780934D07EFCC8150E7
:1024B000823008F03CCDE8E0F5E08491882351F0CB
:1024C00009E015E00E94320DF80184910F5F1F4F63
:1024D0008111F8CF89E080934C0789E190E09093D7
:1024E0004E0780934D07D2CCE3E2F5E08491882338
:1024F00051F004E215E00E94320DF80184910F5F63
:102500001F4F8111F8CF87E080934C0789E190E05D
:1025100090934E0780934D07B9CCC82F8C2F0E9403
:10252000870D882309F4B1CCE3E9F4E08491882392
:1025300049F0C4E9D4E00E94320DFE018491219655
:102540008111F9CF60E480E891E00E94520DE0E54E
:10255000F4E08491882349F0C1E5D4E00E94320D73
:10256000FE01849121968111F9CF60E480EC91E025
:102570000E94520DECE4F4E08491882349F0CDE40C
:10258000D4E00E94320DFE01849121968111F9CF91
:1025900082E180934C0788EB9BE090934E078093F9
:1025A0004D07C0E073CCC82F8EEF8C0F823010F037
:1025B000C1116BCC10924C0710924E0710924D0730
:1025C00010920B07C0E662CC80E190E09093C500CA
:1025D0008093C400EAE2F5E08491882351F00BE295
:1025E00015E00E94320DF80184910F5F1F4F811199
:1025F000F8CF83E080934C0789E190E090934E07F9
:1026000080934D0743CC9F3009F4C2C080E0EBCDEE
:1026100080E094E00E94D80D882309F411CC00E8F2
:1026200011E00DC08C35F9F078019FEFE91AF90A35
:102630006FEFC8010E9492048C1302CC87010E94A4
:10264000BC0DC82F823271F7003C81E0180731F0D1
:102650006FEFC8010E9492048111E6CF81E0809360
:10266000990786E074CC0E94BC0DC82FDDCF82E3B1
:10267000F1CE8CE080930B0786E080934C0706CC6C
:1026800080919307813009F4A9C08091920720912D
:102690009407909195070FEF080F882379F0E22EA9
:1026A000F92E10E00F5F1F4F0E0D1F1DF7018191D6
:1026B0007F010E94320DE016F106C1F785E180939B
:1026C0004C078AEF90E090934E0780934D07DECB46
:1026D0006FEF80EA90E00E9492048F3F09F46EC091
:1026E000E0EDF4E08491882351F001ED14E00E94C4
:1026F000320DF80184910F5F1F4F8111F8CF60E216
:1027000080EA90E00E94520D00E514E0F801849107
:10271000882369F091E5E92E94E0F92E0E94320DAC
:10272000F7018491FFEFEF1AFF0A8111F7CF60E202
:1027300080EC90E00E94520DF8018491882351F0C2
:1027400001E514E00E94320DF80184910F5F1F4FE4
:102750008111F8CF60E280EE90E00E94520DECE42F
:10276000F4E08491882351F00DE414E00E94320DCE
:10277000F80184910F5F1F4F8111F8CF80E18093A2
:102780004C0782E390E090934E0780934D077ECBF9
:1027900084E680930B0781E080934C0791E08C2FB7
:1027A00022CD813009F427CDC82F882389F38EEFFD
:1027B0008C0F823068F39FE08C2F15CDE4EFF4E0AE
:1027C00084918823D9F205EF14E00E94320DF801BC
:1027D00084910F5F1F4F8111F8CFD0CFE091940704
:1027E000F09195078F010F5F1F4F8491882309F4A3
:1027F00065CF0E94320DF80184910F5F1F4F811148
:10280000F8CF5CCF0E94BC0D8C3421F18F3409F0DD
:1028100059CB86E294E00E94D80D882309F452CB6C
:102820000E94BC0D8D3099F0803209F04BCB80E2D4
:1028300094E00E94D80D882309F444CBC053C064AF
:1028400025CB0E94BC0D8B3409F03CCB7FCBC05311
:10285000C0631CCB8AE194E00E94D80D882309F460
:1028600031CBECCF0E94000F811107C080910A0785
:102870008823C1F310920A0780E0089580919007A1
:1028800090919107089580919007909191070097FA
:1028900011F480E008950197909391078093900739
:1028A0000C94BC0D81E090914C07911180E008954B
:1028B0000F931F93CF93DF93182F062FE5E7F4E0D4
:1028C0008491882349F0C6E7D4E00E94320DFE01CE
:1028D000849121968111F9CF80E3810F0E94320DFE
:1028E0008CE20E94320D802F90E00E94CB0E8DE092
:1028F0000E94320D8AE00E94320D84E180934C07E1
:1029000089E190E090934E0780934D07DF91CF913E
:102910001F910F91089590914C07911119C07093D8
:102920009507609394079B012F5F3F4FFB016491D4
:10293000662379F0F90160E06F5F9491319691110F
:10294000FBCF6093920791E0909393070C945814F7
:10295000089560E0F6CF90914C079111089570931F
:102960009507609394074093920710929307642F02
:102970000C94581480914C07811103C081E080931E
:102980004C0708958BB15A9A82FB882780F991E011
:10299000892708951F93CF93DF9390914C0791114E
:1029A00022C0182FE6E1F5E08491882349F0C7E1C1
:1029B000D5E00E94320DFE01849121968111F9CF5C
:1029C00080E3810F0E94320D8DE00E94320D8AE07B
:1029D0000E94320D86E180934C0782E390E0909351
:1029E0004E0780934D07DF91CF911F91089581117C
:1029F0005A98089590919A0780914F079813FACFAB
:102A00008091C00085FFFCCF08958091F0078F3F33
:102A1000F9F020910201289F9001112420583F4F86
:102A20003093050120910301829F900111242058C9
:102A30003F4F3093060190910401899FC0011124FA
:102A400080589F4F9093070181E08093F30708958A
:102A5000809102018093050180910301809306011A
:102A6000809104018093070181E08093F30708952A
:102A70001F920F920FB60F9211242F933F938F93B3
:102A80009F9320917800309179008091EC0790918C
:102A9000ED07280F391F3093ED072093EC07809145
:102AA000E5078F5F8093E507982F9F73D9F48034F3
:102AB00071F030939C0720939B071092ED071092C2
:102AC000EC0782EC80937C001092E50710C03093F5
:102AD000EF072093EE071092ED071092EC0788ECB9
:102AE00080937C0080917A00806480937A009F912B
:102AF0008F913F912F910F900FBE0F901F901895BF
:102B00001F93CF93DF93EC0105C00E9443142196DD
:102B1000181309C0FE0114911111F7CF81E0DF9164
:102B2000CF911F91089580E0DF91CF911F9108957B
:102B3000CF9381E08093FF078091FD079091FE077E
:102B40009C01220F331F820F931F009741F0EAE090
:102B5000F1E0865F9E4F1192E817F907E1F70E94B6
:102B6000C214C82F6091FD077091FE078AE091E0C2
:102B70000E943C048C2F0E94F7141092F307CF910F
:102B800008952F923F924F925F926F927F928F9211
:102B90009F92AF92BF92CF92DF92EF92FF920F93EC
:102BA0001F93CF93DF9300D01F92CDB7DEB78091F4
:102BB0007A00806480937A0080919E07509108018A
:102BC0005B83F52E052F11E0811115C00E94321490
:102BD000882311F1982F907F903609F445C08F70AB
:102BE000482E903309F443C0903109F44DC08091D0
:102BF0009E07882359F30E945214882339F3809149
:102C00009E07807F10929E07803F01F70E94BA14B2
:102C10000E9432148111DECF80910001815009F0B1
:102C200041C082E3809300018091E8079091E90719
:102C3000009709F489C001979093E9078093E8070A
:102C4000892B09F081C082E0809301018091EA071D
:102C50009091EB07009709F07EC08091F0078230D9
:102C600008F477C4815033C010929E07AFCF0E9402
:102C70005214882309F4BBCF65E278E0842D0E94CA
:102C80008B1480919E07A0CF0E94431490E0FC011A
:102C9000E454F109E631F10508F0A9CFE754FF4FFC
:102CA0000C94451F80930001809101018823E1F07D
:102CB000823099F208F4FEC3833009F4E8C384300B
:102CC00041F48091F007893008F443C48850809320
:102CD000F0070E9405158091F007882309F4EEC3E0
:102CE0008F3F11F4109201018091F907882319F0A8
:102CF00081508093F9078091FA079091FB07009724
:102D000009F101979093FB078093FA0721E08091E6
:102D1000F107811117C0822F0F900F900F90DF9154
:102D2000CF911F910F91FF90EF90DF90CF90BF90C8
:102D3000AF909F908F907F906F905F904F903F905B
:102D40002F90089520E0E7CF8091EA079091EB075C
:102D5000009709F4A9CF01979093EB078093EA07B6
:102D6000892B09F0A1CF1092FF0781E08093010128
:102D70008091F0078E3F08F0ABC38F5FA8CF8FEB39
:102D800095E00E948015882309F431CF0E945214E7
:102D9000882309F42CCF6BE178E0842D0E948B14FA
:102DA00002C00E94000F0E9452148823D1F3842D88
:102DB0000E94CA140E94FA14E0E0F8E30995809199
:102DC0009E0702CF0E943E14429708F410CF4FE9AD
:102DD000C42E47E0D42E56010E944314D5018D9392
:102DE0005D01B1EBAB16B7E0BB06B1F7E1EBF7E085
:102DF00025E08291382F330F932F990F990F930F5E
:102E0000890F2827208337E0EF39F30791F7EEE9A0
:102E1000F5E083E52491982F990F890FD6019C91B5
:102E2000392F330F330F930F9227890F8D936D0135
:102E30003196B1EBCB16B7E0DB0661F78111D7CE47
:102E400041E16FE977E0842D0E94AB1480919E07E9
:102E5000BBCE0E944314823509F0C9CE0E945214A1
:102E6000882309F4C4CE86E780939F0782E7809386
:102E7000A007A1EAB7E0ECE8F6E084918D933196E3
:102E800056E0EC39F507C9F742E16FE977E0842DA8
:102E90000E94AB1480919E0797CE87EB95E00E942D
:102EA0008015882309F4A3CE0E945214882309F4C4
:102EB0009ECE63E880E090E00E94A30463E178E0A6
:102EC000842D0E948B1480919E077ECE0E94431415
:102ED000803509F08CCE0E945214882309F487CEE5
:102EE000F894A091EE07B091EF0740919B075091A5
:102EF0009C07789481E780939F0780E78093A007E1
:102F00002091FF0721111BC490910101943009F415
:102F100016C481E0923009F412C46091E807709100
:102F2000E907672B09F082606091EA077091EB076F
:102F3000672B09F084609091F10791118860622FEE
:102F400070E09091F907992309F4FBC32091F407ED
:102F50002F7730E0E42DF0E0EE24E39490E02E179C
:102F60003F0709F4E12C2E2D392F262B372B232B4D
:102F700009F080618093A1079091FD078091FE0781
:102F80009093A2078093A307809108018093A407E0
:102F90002091E6073091E7070E944B1FDC01CB012F
:102FA0009058AF4FBF4FCD01AA27BB278093A507ED
:102FB0009093A6078091F2078B5B0024440F551F66
:102FC000001C440F551F001C452F502D480F4093E7
:102FD000A70749E06FE977E0842D0E94AB14809148
:102FE0009E07F2CD0E944314893409F464C308F0AB
:102FF0006BC1833409F471C3843409F0F8CD0E94A5
:103000005214882309F4F3CD0E943E14892B09F44D
:1030100049C20E944314813108F044C290E7909362
:103020009F0794E69093A0078093A107282F30E094
:10303000BBE08B9FC0011124FC01E353FA4F649164
:103040006093A20785539A4FFC0145915491FA0170
:103050008491882309F4EDC33196A5E091E09A0F9D
:10306000B0E0A156B84F8C938491A92F319681116D
:10307000F5CF492F8BEF890F8093A307862F807F91
:1030800009F003CF5BE0529FC001539F900D1124C4
:10309000FC01E053FA4F259134918E529A4FFC0176
:1030A00085919491009709F4F0CEE42FF0E0E15679
:1030B000F84F2083E1E0E40FF0E0611152C44E5F6D
:1030C000E156F84F8083E1CE0E944314823509F423
:1030D000FAC1833509F08BCD0E943E14039708F4A2
:1030E000E1C10E944314809302010E944314809323
:1030F00003010E944314809304010E9405158DE68C
:1031000080939F0783E78093A007809102018093BB
:10311000A107809103018093A2078091040180930D
:10312000A30745E06FE977E0842D0E94AB148091FE
:103130009E074ACD0E944314823509F40CC208F45C
:103140007BC1833509F434C2873509F050CD0E9424
:103150003E14029708F4A6C10E944314E82E0E9470
:1031600043142E2D30E0F901F82BCF01F093EB073B
:10317000E093EA07309789F02091FF0721110DC0F5
:103180002091E8073091E9072115310519F0E21780
:10319000F30718F424E0209301012CE620939F0705
:1031A00027E72093A0078093A1079093A20744E00C
:1031B0006FE977E0842D0E94AB1480919E0704CDC7
:1031C0000E944314843409F485C1833509F465C130
:1031D000833409F00CCD0E945214882309F407CDE2
:1031E00080919E078111F0CC85E680939F0783E64E
:1031F0008093A0070093A10743E06FE977E0842D57
:103200000E94AB1480919E07DFCC0E944314982F3C
:103210008B7F883409F0EBCC2091FF072111E7CC9C
:103220008091F907882309F407C38091F407482F98
:103230004F7750E0642D70E04617570709F4FCC241
:10324000983409F0D4CC87FDD2CC4091FD07509141
:10325000FE078A01000F111F040F151F011511052C
:1032600009F47DC34AE0E42E41E0F42E2A839983D9
:103270000E944314D7018D937D01015011092A81C9
:1032800099810115110591F7983409F468C380E01C
:1032900084298093F40789E18093F9072A830E94A7
:1032A000C214182F6091FD077091FE078AE091E02B
:1032B0000E943C04812F0E94F7141092F3078FEFB5
:1032C0008093F1072A8127CD823509F49AC1873589
:1032D00009F08DCC0E945214882309F488CC0E94F6
:1032E0003E14029708F430C20E944314E82E0E9454
:1032F0004314582E20E12E1508F4D4C00E943E1429
:10330000252D30E08217930708F4CCC080E7809326
:103310009F0787E78093A007E092A1072E2C312C0E
:103320003BE0E39EC0011124FC01E353FA4F64909B
:1033300087539A4FFC01A590B490C501262D2F709C
:10334000712E01C0770C2A95EAF7751408F4AAC00B
:1033500067FCF7C2552009F4FCC25710A3C0F2EA7B
:103360008F2EF7E09F2E8FEF850D90E0AC014D552D
:10337000584F6A010E944314D4018D934D01AC153E
:10338000BD05C1F767FC6FC2611064C26091A207FE
:10339000862F90E04BE0429D9001439D300D11241B
:1033A000F901E053FA4F459154912E523A4FF901E9
:1033B000259134912115310529F4662009F4CCC2F8
:1033C0002EEF3FEF8417950708F46CC028173907D4
:1033D00008F468C073EA872E77E0972EC50104C011
:1033E000F40161914F01C6016C01BFEFCB1ADB0AFA
:1033F0000E94A3048C2D8A19851590F3C6015714D9
:1034000008F489C2FEE0EF1609F47AC2FE1508F44A
:1034100052C22CE0E21609F438C23DE0E312ECCED1
:10342000552031F08091A2079FEF980F9E3F08F042
:1034300084E180939D07E0CE8F3409F0D8CB0E94C1
:103440003E14892B79F10E944314823058F5811182
:103450007EC194E0909301012091EA073091EB073F
:103460002115310539F04091E8075091E9072417FB
:10347000350720F01092E9071092E8079CE6909338
:103480009F079FE69093A0078093A107B5CE8091F8
:10349000F0078A3FE8F48B5F1ACC0E943E14892B18
:1034A00009F02CC16DE078E0842D0E948B1480918E
:1034B0009E078ACB813009F45BCC0BCC10920101C2
:1034C0000E94981511CC8DE680939F0782E71BCE52
:1034D0008FEFFDCB0E945214882309F488CB0E9401
:1034E0003E14892BF9F20E9443145B818517D0F6B4
:1034F00095E690939F0794E69093A0078093A10789
:1035000090E0880F991F880F991F82569E4FFC01EB
:1035100025913491F9018491882309F433C23196BD
:10352000A4E091E09A0FB0E0A156B84F8C9384913B
:10353000A92F31968111F5CF492F8CEF890F8093F8
:10354000A2076FE977E0842D0E94AB1480919E075B
:103550003BCB80E0BCCB8CE680939F0782E78093D7
:10356000A0078091FF07811107C09091010192305F
:1035700021F081E0943009F480E08093A1079091DC
:10358000EA078091EB079093A2078093A30790919D
:10359000E8078091E9079093A4078093A50747E087
:1035A0006FE977E0842D0E94AB1480919E070CCBCD
:1035B0000E943E14029708F475CF0E944314E82E2F
:1035C0000E9443142E2D30E0A901582BCA015093BC
:1035D000E9074093E807009779F02091EA073091D6
:1035E000EB072115310519F04217530728F4109203
:1035F000FF0723E0209301012CE620939F0723E798
:10360000D0CD0E945214882309F4F1CA0E943E14BE
:10361000892B09F447CF0E944314813108F042CF2F
:1036200090E790939F0792E79093A0078093A1075C
:10363000FBE08F9F60011124F601E353FA4FE49001
:10364000F601E753FA4FA590B4908E2D807F6FEF6F
:1036500009F496C0C5010E9492048F3F09F4A7C0E7
:1036600026E8E21609F473C120E2882309F46CC14C
:103670009FEFA91AB90A8093A30784EAC82E87E0AE
:10368000D82EEE24E39407C0D6018D936D01E39408
:103690005401E21669F04501BFEF8B1A9B0A6FEFE8
:1036A000C5012A830E9492042A818111EDCF2E2D1B
:1036B00044E0420F72C00E945214882309F497CA52
:1036C00080919E07811180CA60EB75E0842D0E9475
:1036D0008B1480EF80939E078ECA0E945214882319
:1036E00009F485CA80919E0781116ECA80E7809394
:1036F0009F0783E68093A00781E1C6CE0E94431412
:10370000E82E8F1508F0CECE8093E3078091F10765
:10371000863018F085E08093F1071092FB07109235
:10372000FA070E945214882309F461CA85E680933F
:103730009F0783E78093A007E092A1075DCD80E01B
:10374000ECCB20E030E011CC0E944314ABCE1092C1
:10375000FF0793E0909301012091E8073091E9077A
:103760002115310541F04091EA075091EB072417EC
:10377000350708F483CE1092EB071092EA077ECE4D
:10378000C5010E9492048093A307F1E0EF1609F4AB
:1037900035C08F3F51F145E021E02093A2076FE94A
:1037A00077E0842D0E94AB1480919E070DCAF6012C
:1037B000E253FA4F85919491009709F4C5C0FC013A
:1037C0002491222309F4C0C03196A4E031E03A0FDD
:1037D000B0E0A156B84F2C932491A32F319621111C
:1037E000F5CF432F2CEF230FD8CFF601E253FA4F3A
:1037F000E491E093A30745E021E0CFCF6FEFC5014F
:1038000001960E9492048093A4079091A3078923B4
:103810008F3F19F046E022E0C0CFF601E253FA4FA5
:10382000859194918093A3079093A40746E022E0AA
:10383000B4CF80E045E020CC4091FD075091FE07D9
:103840008A01000F111F040F151F0115110509F042
:1038500009CD1ACD8091A30790E0982F8827609119
:10386000A207862B97CD6091A207E3EAF7E0962F97
:1038700080E001C09191992309F414CE8F5F8515E2
:10388000C8F36F3F09F0A6CD0DCE552019F18091F8
:10389000A2072091A307922F982BE1F090E0922BA2
:1038A0008130E2E09E07B4F4282F892F2093FD0792
:1038B0008093FE07B5CD4FE0E41689F050E1E512A4
:1038C0009BCC552051F08091A2078F3F31F080931F
:1038D000F20792CC22E380E0E9CF80E8F8CF5520D0
:1038E00049F18091A2072091A307922F98239F3F2F
:1038F00009F190E0922B9093E7078093E6077CCC48
:10390000552039F08091A2078F3F19F08093E4078A
:1039100073CC84E1FBCF67FC10C0D52C5C01BFEFFA
:10392000AB1ABB0A6FEF0E94A304D394C501D7144E
:10393000A8F368CD84E992E0DECF511026C0D12CE7
:10394000EDCF51100CCD5BCD44E020E026CF20E43C
:103950008CCE7110F4CF56CD2EEF30E033CD80E811
:1039600097CCE156F84F3083E2E0E40FF0E0E15607
:10397000F84F8083E3E0E40FF0E04C5FE156F84F4E
:10398000908383CA80E044E0DACD5C01AFEFAA1AED
:10399000BA0A60E00E94A304DD24D394D50CD714A6
:1039A00008F030CDC501BACF1F93CF93DF93EC0160
:1039B0000E94C115882329F08091FF07882329F0F0
:1039C00080E0DF91CF911F9108950E94C214182FBB
:1039D0006091FD077091FE07CE010E943C04812F8B
:1039E0000E94F7141092F30781E0DF91CF911F91AD
:1039F00008952091F5073091F6074091F70750910F
:103A0000F80765E074E888E098E00E94021FDC0196
:103A1000CB010196A11DB11D8093F5079093F60788
:103A2000A093F707B093F8078091F7079091F807F4
:103A300008952091F5073091F6074091F7075091CE
:103A4000F80765E074E888E098E00E94021FDC0156
:103A5000CB010196A11DB11D8093F5079093F60748
:103A6000A093F707B093F8078091F7079091F807B4
:103A7000969587950895E82F2091F5073091F607E0
:103A80004091F7075091F80765E074E888E098E006
:103A90000E94021FDC01CB010196A11DB11D809384
:103AA000F5079093F607A093F707B093F8072091D6
:103AB000F7073091F807AE2FB0E00E944B1F089532
:103AC000FC012091F5073091F6074091F7075091DE
:103AD000F80765E074E888E098E00E94021FDC01C6
:103AE000CB010196A11DB11D8093F5079093F607B8
:103AF000A093F707B093F807A091F707B091F807E4
:103B00009F010E944B1F08950E9439040E94530E8A
:103B10006FEF7FEF84E090E00E94B5049093F6078A
:103B20008093F5076FEF7FEF86E090E00E94B50489
:103B30009093F8078093F707C090F507D090F607A9
:103B4000E090F707F090F80723EFC20E2DE0D21EA9
:103B5000E11CF11C6C2D84E090E00E94A304B701ED
:103B60008827992786E090E00E94A30482EC809346
:103B70007C0082E880937A0020E480E090E0DC0121
:103B800030917A00306430937A00880F991FAA1F11
:103B9000BB1F30917A0036FDFCCF409178005091E8
:103BA000790040FF02C031E08327215049F740915E
:103BB000F5075091F6076091F7077091F807842791
:103BC0009527A627B7278093F5079093F607A0932C
:103BD000F707B093F80764E972E088E090E00E948C
:103BE000B5049093E7078093E60760E88AE090E0E9
:103BF0000E9492048093F20762E370E082E090E01A
:103C00000E94B5049093FE078093FD078130924097
:103C100070F060E083E090E00E94A3048091FD07D3
:103C20009091FE0799279093FE078093FD0764E12A
:103C30008CE090E00E94920480939D07811103C064
:103C400084E180939D0764E18CE090E00E949204FF
:103C50008093E4078FEC80937A00789410910801A8
:103C60002091F5073091F6074091F7075091F8073A
:103C700065E074E888E098E00E94021FDC01CB0157
:103C80000196A11DB11D8093F5079093F607A093AF
:103C9000F707B093F8072091F7073091F807A12FA5
:103CA000B0E00E944B1FAA27BB27E82F8093E307B1
:103CB000CFEFC10FD0E08091FA079091FB07892BDD
:103CC00009F05BC0123008F494C02091F5073091E0
:103CD000F6074091F7075091F80765E074E888E02F
:103CE00098E00E94021F6B017C01FFEFCF1ADF0AF0
:103CF000EF0AFF0AC092F507D092F607E092F707A5
:103D0000F092F8072091F7073091F807DE010E9442
:103D10004B1FAA27BB278E1708F08F5F8093E307FE
:103D2000F0919D07A090E40722E3A29E5001112488
:103D3000A701960165E074E888E098E00E94021F00
:103D4000DC01CB010196A11DB11D8093F507909375
:103D5000F607A093F707B093F8072091F707309183
:103D6000F807D5010E945A1F32E3F39F800D911D81
:103D700011249093FB078093FA07F0E0EE0FFF1FEA
:103D8000EE0FFF1FE056FE4F85919491FC010995BF
:103D90000AC08091FF078823D1F00E94C11580914D
:103DA000F30781110DC08091F107882391F38150B1
:103DB0008093F1070E94C1158091F307882399F33E
:103DC0008091FF07882331F01092F307ECCFE09148
:103DD000E30771CF0E94C214F82E6091FD07709125
:103DE000FE078AE091E00E943C048F2D0E94F714A8
:103DF000EBCFC090F507D090F607E090F707F09072
:103E0000F8078ECFDB018F939F930E94611FBF91B4
:103E1000AF91A29F800D911DA39F900DB29F900D19
:103E200011240895AA1BBB1B51E107C0AA1FBB1F89
:103E3000A617B70710F0A61BB70B881F991F5A9536
:103E4000A9F780959095BC01CD010895052E97FBAB
:103E50001EF400940E943D1F57FD07D00E946C1F66
:103E600007FC03D04EF40C943D1F509540953095BF
:103E700021953F4F4F4F5F4F0895909580957095D6
:103E800061957F4F8F4F9F4F0895EE0FFF1F059055
:103E9000F491E02D0994A29FB001B39FC001A39FAC
:103EA000700D811D1124911DB29F700D811D112473
:103EB000911D08950E944B1FB7FF0895821B930B1D
:103EC00008950E944B1FA59F900DB49F900DA49F35
:103ED000800D911D11240895A1E21A2EAA1BBB1B6F
:103EE000FD010DC0AA1FBB1FEE1FFF1FA217B307C6
:103EF000E407F50720F0A21BB30BE40BF50B661FDC
:103F0000771F881F991F1A9469F76095709580959F
:103F100090959B01AC01BD01CF010895F894FFCFAE
:0A3F2000320380808080808008005A
:00000001FF
