:107000000C94F5380C9412390C9412390C941239F2
:107010000C9412390C9412390C9412390C941239C4
:107020000C9412390C9412390C9412390C941239B4
:107030000C9412390C9412390C9412390C941239A4
:107040000C9412390C9412390C9412390C94123994
:107050000C9412390C9412390C9412390C94123984
:107060000C9412390C94123952454144590049503C
:10707000442C004E4E4543540D004F5345440D00E3
:107080002C330D0A0043574A41505F4355523A2270
:1070900000220D0A00222C220041542B4349505358
:1070A00045525645523D312C0041542B43495053D3
:1070B000454E443D0041542B43575341505F435587
:1070C000523D220041542B43574A41505F43555291
:1070D0003D220041542B43574A41505F4355523F94
:1070E0000D0A0041542B43495041505F4355523DD6
:1070F000220041542B43574D4F44455F4355523D69
:107100000041542B4349505354415F4355523D2253
:107110000041542B4357444843505F4355523D3040
:107120002C310D0A0041542B4357444843505F43D0
:1071300055523D312C310D0A0041542B4349504DDD
:1071400055583D310D0A0041542B434950434C4F93
:1071500053453D00415445300D0A0041542B5541E3
:1071600052545F4355523D313030303030302C383E
:107170002C312C302C320D0A00454E44204F4B0050
:1071800052524F520D0041494C0D004B0D00010071
:107190000A006400E8031027594F4C4B415F424CF2
:1071A000535400596F6C6B6120426F6F74204C6FA9
:1071B0006164657220312E30003235352E3235351E
:1071C0002E3235352E30003139322E3136382E31CF
:1071D000302E3100303132333435363738390057BC
:1071E0004946495F594F4C4B410011241FBECFEF18
:1071F000D8E0DEBFCDBF11E0A0E0B1E0E2EFFFE7F5
:1072000002C005900D92A230B107D9F723E0A2E0A9
:10721000B1E001C01D92A331B207E1F70E94DA3B51
:107220000C94F73F0C94003880E19EE0289A00C04F
:107230000000289800C000C000C000C000000197F6
:107240000097A1F7089592BD81BDF89A80B5089581
:1072500020911103211108C00E94233991E08F3F32
:1072600009F490E0892F089580E00895292F229550
:107270002F702093100390931203809304010895BC
:1072800080E08A95F1F708958091C00087FF13C0D0
:107290009091C600809102018F3F69F0E091030157
:1072A000E80FF0E0E05FFD4F90838F5F8093020175
:1072B0008B3F08F05A9A08959BB15A9A282F217053
:1072C00040E050E0BA01422F419581FB222720F98E
:1072D000522F519582FB882780F9682F619588E1AC
:1072E000289A67FD09C000002898440F551F661FA3
:1072F000771F00C0000008C0000000C000C0440F9D
:10730000551F661F771F289800C000C0815041F7A5
:107310009BB908950E944439B19B1BC0B19A8091DA
:107320000601882319F08150809306019091050190
:1073300081E0890F8093050180910401892319F070
:107340008091120302C0809110030E945C390C945A
:10735000443908950E948A3980910201811109C03F
:107360000E948A39809106018111F6CF8FEF9FEF3D
:107370000895815080930201803809F45A98E09171
:10738000030181E08E0F80930301F0E0E05FFD4F89
:10739000808190E008958D3059F08A3049F097FD52
:1073A0000AC00E94AA39F7CF8A3029F40E94AA396C
:1073B0008D30D1F7FBCF08951F93CF93DF93EC016E
:1073C000FE011491112341F00E94AA3997FD07C0D4
:1073D00021961817A9F305C080E091E002C08FEF55
:1073E0009FEFDF91CF911F910895809306010E9436
:1073F000AA3997FF02C08FEF08958F3449F48BE8C4
:1074000091E70E94DC39811521E09207B1F41CC09C
:10741000863449F486E891E70E94DC39811521E041
:10742000920759F413C0853441F480E891E70E9433
:10743000DC39811521E0920759F00E94CB39209167
:1074400006012111D6CFD7CF81E008958EEF0895A0
:1074500080E0089585E0809306010E94AA3997FD97
:107460000AC0853451F480E891E70E94DC39811527
:1074700021E0920761F480E00895833541F489E7C3
:1074800091E70E94DC39811521E0920719F00E94F2
:10749000CB39E5CF81E00895CF93DF93EC0185E010
:1074A00080930601209731F00E94AA3997FD02C00F
:1074B0002197F8CFDF91CF910895CF93DF931F925B
:1074C000CDB7DEB79091C00095FD05C089830E94BD
:1074D0008A398981F7CF8093C6000F90DF91CF91D1
:1074E00008958DE00E945D3A8AE00C945D3ACF9356
:1074F000DF93FC018491EF012196882331F00E94F3
:107500005D3A0E948A39FE01F5CFDF91CF9108954F
:10751000EF92FF920F931F93CF93DF938C01C6E9F5
:10752000D1E784E0F82EE12CFE012591349180E032
:107530000217130720F08F5F021B130BF9CF811185
:1075400005C0E11005C0F11006C002C0EE24E394AE
:10755000805D0E945D3A0E948A39FA9422978FEFEB
:10756000F812E2CFDF91CF911F910F91FF90EF9032
:107570000895809306010E948A39109202015A9858
:10758000809106018111F7CF08950F931F93CF9338
:10759000DF93062F0023C1F0EC0121960E942339CE
:1075A000182F882389F0823221F08C3511F08C322B
:1075B00019F48CE50E945D3A812F0E945D3A0E9489
:1075C0008A390150CE01E6CFDF91CF911F910F9103
:1075D00008950F931F93CF93DF93EB018A010E94CD
:1075E000773ACE010E942839882341F060E4CE0129
:1075F000DF91CF911F910F910C94C53AC801DF9193
:10760000CF911F910F910C94773A07B600FE03C0FB
:107610000E948A39FACF089592BD81BDF89A80B54B
:10762000861741F060BDFA9AF99AF99B03C00E944F
:107630008A39FBCF08950F931F93CF93DF93062FC3
:10764000002339F0EC0121960E942339182F811173
:1076500003C080E091E01DC0823251F08C3541F0D2
:107660008C3231F00E94AA399C0197FF0CC005C0F2
:107670000E94AA399C0197FF03C08FEF9FEF09C0BA
:107680008C3581F305C0181303C00150CE01D8CF4B
:10769000C901DF91CF911F910F9108950F931F930F
:1076A000CF93DF931F92CDB7DEB7182F05E000937D
:1076B00006018F3F01F189EA90E769830E94773ADA
:1076C00080E3810F0E945D3A8CE20E945D3A6981FD
:1076D000862F90E00E94883A0E94713A009306013A
:1076E0000E94AA3997FD07C08E3319F00E94CB394A
:1076F000F9CF81E001C080E00F90DF91CF911F9121
:107700000F9108950F931F93CF93DF931F92CDB7DF
:10771000DEB7162F962FE62FF72F6E2F691B2491B9
:1077200031962111FACF79830E944E3B79818823CB
:1077300099F0E12FF72F84918F010F5F1F4F88235E
:1077400021F00E945D3AF801F6CF0F90DF91CF91C2
:107750001F910F910C942A3A80E00F90DF91CF9106
:107760001F910F9108951F93CF93DF93182F682FC8
:10777000809100010E944E3B882371F0C7E0D1E068
:107780001C0F1C1721F089910E945D3AFACFDF91FE
:10779000CF911F910C942A3A80E0DF91CF911F91F5
:1077A000089585E68093090182E780930A0184E0C9
:1077B0000C94B33BCF93DF9300D000D01F92CDB792
:1077C000DEB7F894F4B614BE2898209A23982B9A22
:1077D0002D98259A0E9440391B9911C025982D9A01
:1077E0000E9440391B9B0BC01D9B09C02B98239AFC
:1077F0000E9440391D9903C081E08093110381E00C
:1078000084B915B8529A5A988091110381110BC00E
:10781000FF2049F080E090E00E942339833819F47A
:10782000E0E0F0E009951FEF0E9440391150E1F7C8
:107830000E94143982E08093C00080E190E0909330
:10784000C5008093C40088E18093C10086E08093E6
:10785000C2001092800089E698E19093890080939D
:10786000880010926F008CE0809381001092850058
:107870001092840082E090E20E94363950E1852E19
:10788000912C01E010E0FF2019F08AE00E94B93A43
:107890009092C5008092C4000E94713A82E00E94DA
:1078A000F5398BE591E70E94773A83E00E94F5393C
:1078B0008F3F19F082E00E94B93A1093C5000093FF
:1078C000C4000E94713A82E00E94F5398BE591E78D
:1078D0000E94773A85E00E94F5398F3F19F488E0DD
:1078E00090E475C182E00E94B93A84E591E70E9474
:1078F000773A82E00E94F53987E491E70E94773A6F
:1079000085E30E945D3A0E94713A85E00E94F53954
:1079100089E391E70E94773A8AE00E94F539813045
:1079200019F088E096E453C180E891E00E9428397C
:10793000882319F07724739402C042E0742E82EFFA
:1079400090E70E94773A80E3870D0E945D3A0E949B
:10795000713A8AE00E94F539813019F088E092E4AA
:1079600036C170FE9FC080EA90E00E9428398823CB
:10797000F1F081E091E70E94773A60E280EA90E0DE
:107980000E94C53A85E990E70E94773A60E280EC70
:1079900090E00E94C53A85E990E70E94773A60E25C
:1079A00080EE90E00E94C53A81E990E702C085E24E
:1079B00091E70E94773A8AE00E94F539813021F000
:1079C000F72DF2607F2E6EC083ED90E70E94773A2C
:1079D0008AE0809306010E94AA397C01612CF7FCA1
:1079E00038C08E2D8B32B1F485E890E70E94DC39E7
:1079F0007C01811521E0920739F560E480E891E08F
:107A00000E941B3B7C010E94AA398297E9F46624FC
:107A100063941AC0853469F480E891E70E94DC39E8
:107A20007C01811531E0930779F4472D4260742E73
:107A300010C08F3449F480E891E70E94DC397C0162
:107A4000E11481E0F80629F0C7010E94CB397C01DE
:107A5000C6CF611027C082E096E10E94363984ECDF
:107A600090E70E94773A60E480E891E00E94C53A8E
:107A700085E990E70E94773A60E480EC91E00E940B
:107A8000C53A81E990E70E94773A8FEF0E94F53975
:107A9000813021F0972D9260792E04C082E090E22F
:107AA0000E94363971FE6CC070FE12C082EF90E702
:107AB0000E94773A80E3870D0E945D3A0E94713AF6
:107AC0008AE00E94F539813019F088E095E47FC0A2
:107AD00081E191E70E94773A8AE00E94F53947EC0C
:107AE00051E760E470E083EE90E70E94E93A47ECEA
:107AF00051E760E670E085E990E70E94E93A49EBDA
:107B000051E760E870E085E990E70E94E93A81E991
:107B100090E70E94773A82E30E94F5394FED51E7F2
:107B200060E071E085EB90E70E94E93A44ED51E7AF
:107B300060E471E085E990E70E94E93A82E20E9400
:107B40005D3A8CE20E945D3A8FE390E00E94233917
:107B50008F3F31F090911103911102C090E002C06B
:107B600086E090E00E94883A80E890E70E94773AA9
:107B700082E30E94F539813019F088E093E427C050
:107B80008CE390E00E942339E82E8DE390E00E9480
:107B90002339F12CF82AEFEFEE16FE0621F0809142
:107BA0001103882321F03CE3E32E3DE0F32E89E925
:107BB00090E70E94773AC7010E94883A0E94713A82
:107BC00082E30E94F539813029F080E094E40E943C
:107BD00036395BCEF3E07F1203C085E090E702C048
:107BE00081E090E70E94363982E6809307018CE6B7
:107BF00080930801E12CF12C77247A9422E7622EFD
:107C0000709206010E94AA3997FDFACF10ED180F65
:107C10001A3080F50E94AA398C3209F095C00E9472
:107C2000AA39833409F090C00E94AA398C34A9F48F
:107C30008AE790E70E94DC398115914019F080E0D5
:107C400090E082C08091000118137CC07092000106
:107C500081E090E70E94363975C08F3409F074C016
:107C600083E790E70E94DC398115914041F763EA90
:107C700071E763C08B3209F067C08EE690E70E941F
:107C8000DC3981159140D9F60E94AA3910ED180F00
:107C90001A3008F059C00E94AA398C3209F054C039
:107CA0000E94AA39812C912C30ED380F3A3078F4AB
:107CB0002AE0F4012E9F40012F9F900C1124880E82
:107CC000991E30E3831A91080E94AA39EDCF8114DE
:107CD0009104D1F18A33C1F58091000118130BC0D2
:107CE00085E0809306018401045011090C3F1105C1
:107CF00070F1C4014EC188E991E70E94DC39811519
:107D000041E0940709F581E090E10E9436398091C5
:107D10000001853070F487E491E70E94773A809102
:107D20000001805D0E945D3A0E94713A85E00E94E8
:107D3000F5391093000168E670E7812F0E94823BBD
:107D4000709206010E94AA390E94CB395DCF0E9431
:107D5000AA39823419F0C40102971BC10E94AA39C2
:107D60008C34C9F78D820E94AA3989830E94AA396E
:107D700039812D81303509F06BC0873409F0DFC0BF
:107D80000E94AA398C010E94AA39382E212C02297E
:107D900013290115110549F00E151F0519F4003EB0
:107DA000110590F0C4010697F4C0EF2821F081E19D
:107DB00080935700E89581E094E10E9436396FEF97
:107DC00080E090E00E940C3B98013695322F2227EC
:107DD000379527953C832B83490120E02D830E9412
:107DE000AA397C010E94AA39582E412CE428F52892
:107DF00031E0F401070130935700E89511242D81FB
:107E00002E5F42E0840E911C203841F70E94053B12
:107E100083E0EB81FC8180935700E8950E94053B4D
:107E200085E0EB81FC8180935700E8950E94053B3B
:107E30007801FFEFEF1AFF0A80E78093090187E6D8
:107E400080930A0100930B0110930C0186E0C6C0D9
:107E5000243089F53334C9F48D3409F0C2C0EF28D9
:107E600021F081E180935700E89523E620930901F2
:107E70008DE680930A0184E00E94B33B81E090E2AA
:107E80000E943639E12CF12CBBCE323509F0A9C065
:107E9000833509F0A6C06092090133E730930A01E7
:107EA00084E00E94B33B1092800010928100E0E0D9
:107EB000F0E00995A5CE273009F047C0323509F02A
:107EC00047C0853409F08DC00E94AA398C010E94F8
:107ED000AA39D82EC12C0C291D290E94AA3902309A
:107EE000110508F458C0800E911E8114F4E09F061D
:107EF00008F051C06092090125E620930A01009321
:107F00000B0110930C0180930D014EE051E0202FE6
:107F1000280F201791F048013FEF831A930AC801F8
:107F20002D8349835A830E94233949815A81FA015A
:107F30008193AF0184012D81ECCF8EE04FC02430BE
:107F400009F44FC0273009F44CC0273008F449C069
:107F5000373509F046C0853409F043C02D830E94AF
:107F6000AA398C010E94AA39B82EA12C0A291B29F2
:107F70000E94AA392D812750281309C0023011050B
:107F800030F0C801880D991D8115944038F0C40166
:107F900007970E944C3A0E94D13B32CE37E730938C
:107FA000090145E640930A0100930B0110930C016F
:107FB00020930D01922E900E901679F00E94AA390E
:107FC00098012F5F3F4F682FC8012D8339830E948E
:107FD0000C3B2D8139818901EFCF87E00E94B33BB3
:107FE0000FCE0E94D13BC8010E944C3A09CEF894B2
:027FF000FFCFC1
:027FF200FF008E
:040000030000700089
:00000001FF
