:107000000C94F5380C9412390C9412390C941239F2
:107010000C9412390C9412390C9412390C941239C4
:107020000C9412390C9412390C9412390C941239B4
:107030000C9412390C9412390C9412390C941239A4
:107040000C9412390C9412390C9412390C94123994
:107050000C9412390C9412390C9412390C94123984
:107060000C9412390C94123952454144590049503C
:10707000442C004E4E4543540D004F5345440D00E3
:107080002C330D0A0043574A41505F4355523A2270
:1070900000220D0A00222C220041542B4349505358
:1070A00045525645523D312C0041542B43495053D3
:1070B000454E443D0041542B43575341505F435587
:1070C000523D220041542B43574A41505F43555291
:1070D0003D220041542B43574A41505F4355523F94
:1070E0000D0A0041542B43495041505F4355523DD6
:1070F000220041542B43574D4F44455F4355523D69
:107100000041542B4349505354415F4355523D2253
:107110000041542B4357444843505F4355523D3040
:107120002C310D0A0041542B4357444843505F43D0
:1071300055523D312C310D0A0041542B4349504DDD
:1071400055583D310D0A0041542B434950434C4F93
:1071500053453D00415445300D0A0041542B5541E3
:1071600052545F4355523D313030303030302C383E
:107170002C312C302C320D0A00454E44204F4B0050
:1071800052524F520D0041494C0D004B0D00010071
:107190000A006400E8031027594F4C4B415F424CF2
:1071A000535400596F6C6B6120426F6F74204C6FA9
:1071B0006164657220312E30003235352E3235351E
:1071C0002E3235352E30003139322E3136382E31CF
:1071D000302E3100303132333435363738390057BC
:1071E0004946495F594F4C4B410011241FBECFEF18
:1071F000D8E0DEBFCDBF11E0A0E0B1E0E4EFFFE7F3
:1072000002C005900D92A230B107D9F723E0A2E0A9
:10721000B1E001C01D92A331B207E1F70E94CF3B5C
:107220000C94F83F0C94003880E19EE0289A00C04E
:107230000000289800C000C000C000C000000197F6
:10724000A9F7089592BD81BDF89A80B5089520915F
:107250001103211108C00E94223991E08F3F09F4E7
:1072600090E0892F089580E00895292F22952F70AE
:10727000209310039093120380930401089580E0FB
:107280008A95F1F708958091C00087FF13C090910F
:10729000C600809102018F3F69F0E0910301E80F81
:1072A000F0E0E05FFD4F90838F5F809302018B3FA2
:1072B00008F05A9A08959BB15A9A282F217040E0FD
:1072C00050E0BA01422F419581FB222720F9522F2D
:1072D000519582FB882780F9682F619588E1289A6B
:1072E00067FD09C000002898440F551F661F771FCF
:1072F00000C0000008C0000000C000C0440F551FBF
:10730000661F771F289800C000C0815041F79BB9C5
:1073100008950E944339B19B1BC0B19A8091060128
:10732000882319F08150809306019091050181E036
:10733000890F8093050180910401892319F08091C0
:10734000120302C0809110030E945B390C944339F0
:1073500008950E94893980910201811109C00E941B
:107360008939809106018111F6CF8FEF9FEF089543
:10737000815080930201803809F45A98E09103010A
:1073800081E08E0F80930301F0E0E05FFD4F80818C
:1073900090E008958D3059F08A3049F097FD0AC089
:1073A0000E94A939F7CF8A3029F40E94A9398D307B
:1073B000D1F7FBCF08951F93CF93DF93EC01FE012C
:1073C0001491112341F00E94A93997FD07C021961D
:1073D0001817A9F305C080E091E002C08FEF9FEF7E
:1073E000DF91CF911F910895809306010E94A939E2
:1073F00097FF02C08FEF08958F3449F48BE891E72F
:107400000E94DB39811521E09207B1F41CC086345B
:1074100049F486E891E70E94DB39811521E0920763
:1074200059F413C0853441F480E891E70E94DB39B8
:10743000811521E0920759F00E94CA392091060176
:107440002111D6CFD7CF81E008958EEF089580E047
:10745000089585E0809306010E94A93997FD0AC02E
:10746000853451F480E891E70E94DB39811521E0F1
:10747000920761F480E00895833541F489E791E74C
:107480000E94DB39811521E0920719F00E94CA3968
:10749000E5CF81E00895CF93DF93EC0185E0809301
:1074A0000601209731F00E94A93997FD02C021976B
:1074B000F8CFDF91CF910895CF93DF931F92CDB78F
:1074C000DEB79091C00095FD05C089830E9489397F
:1074D0008981F7CF8093C6000F90DF91CF910895F7
:1074E0008DE00E945C3A8AE00C945C3ACF93DF9383
:1074F000FC018491EF012196882331F00E945C3ACF
:107500000E948939FE01F5CFDF91CF910895EF9266
:10751000FF920F931F93CF93DF937C0106E911E74E
:10752000C4E0D0E0F8012591349180E0E216F30642
:1075300020F08F5FE21AF30AF9CF811105C0D11153
:1075400004C0C11105C001C0D1E0805D0E945C3A59
:107550000E948939C15002501109CF3F19F7DF91BC
:10756000CF911F910F91FF90EF90089580930601A6
:107570000E948939109202015A9880910601811166
:10758000F7CF08950F931F93CF93DF93D62FDD236B
:10759000C9F08C010F5F1F4F0E942239C82F88232A
:1075A00089F0823221F08C3511F08C3219F48CE59F
:1075B0000E945C3A8C2F0E945C3A0E948939D1501B
:1075C000C801E5CFDF91CF911F910F9108950F93DF
:1075D0001F93CF93DF93EB018A010E94763ACE018D
:1075E0000E942739882341F060E4CE01DF91CF91DA
:1075F0001F910F910C94C23AC801DF91CF911F9156
:107600000F910C94763A07B600FE03C00E948939A8
:10761000FACF089592BD81BDF89A80B5861741F0E2
:1076200060BDFA9AF99AF99B03C00E948939FBCF91
:1076300008950F931F93CF93DF93D62FDD2341F04F
:107640008C010F5F1F4F0E942239C82F811103C088
:1076500020E091E019C0823221F08C3511F08C329B
:1076600049F40E94A93997FF03C02FEF9FEF0CC088
:107670008C3549F40E94A93997FDF7CFC81303C090
:10768000D150C801DBCF282F822FDF91CF911F91DE
:107690000F9108951F93CF93DF9315E01093060188
:1076A0008F3F11F480E01FC0D62FC82F89EA90E7E2
:1076B0000E94763A80E38C0F0E945C3A8CE20E9432
:1076C0005C3A8D2F90E00E94873A0E94703A1093A6
:1076D00006010E94A93997FDE5CF8E3319F00E946B
:1076E000CA39F9CF81E0DF91CF911F9108950F93AF
:1076F0001F93CF93DF931F92CDB7DEB7162F262FA0
:10770000E62FF72F6E2F621B949131969111FACFCD
:1077100079830E944A3B7981882399F0E12FF72FE2
:1077200084918F010F5F1F4F882321F00E945C3AE4
:10773000F801F6CF0F90DF91CF911F910F910C942C
:10774000293A80E00F90DF91CF911F910F9108951A
:107750001F93CF93DF93182F682F809100010E9411
:107760004A3B882371F0C7E0D1E01C0F1C1721F0C1
:1077700089910E945C3AFACFDF91CF911F910C94CE
:10778000293A80E0DF91CF911F910895E7E0F1E081
:1077900085E6828382E7838384E00C94A83BCF93C1
:1077A000DF9300D000D01F92CDB7DEB7F894F4B6C7
:1077B00014BE2898209A23982B9A2D98259A0E94D7
:1077C0003F391B9911C025982D9A0E943F391B9B68
:1077D0000BC01D9B09C02B98239A0E943F391D990D
:1077E00003C081E08093110381E084B915B8529AF7
:1077F0005A988091110381110BC0FF2049F080E05D
:1078000090E00E942239833819F4E0E0F0E0099515
:107810001FEF0E943F391150E1F70E94143982E0B6
:107820008093C00080E190E09093C5008093C400F5
:1078300088E18093C10086E08093C20010928000AE
:1078400089E698E1909389008093880010926F00F8
:107850008CE080938100109285001092840082E079
:1078600090E20E94353970E1472E512C01E010E082
:10787000FF2019F08AE00E94B63A5092C50040926B
:10788000C4000E94703A82E00E94F4398BE591E7CF
:107890000E94763A83E00E94F4398F3F19F082E02B
:1078A0000E94B63A1093C5000093C4000E94703A3B
:1078B00082E00E94F4398BE591E70E94763A85E0F8
:1078C0000E94F4398F3F19F488E090E476C182E099
:1078D0000E94B63A84E591E70E94763A82E00E94DF
:1078E000F43987E491E70E94763A85E30E945C3A96
:1078F0000E94703A85E00E94F43989E391E70E9482
:10790000763A8AE00E94F439813019F088E096E4F2
:1079100054C180E891E00E942739811103C062E0E0
:10792000F62E02C0FF24F39482EF90E70E94763A8D
:1079300080E38F0D0E945C3A0E94703A8AE00E94B8
:10794000F439813019F088E092E437C1F0FEA0C02C
:1079500080EA90E00E9427398823F1F081E091E7E6
:107960000E94763A60E280EA90E00E94C23A85E99D
:1079700090E70E94763A60E280EC90E00E94C23A82
:1079800085E990E70E94763A60E280EE90E00E94FE
:10799000C23A81E990E702C085E291E70E94763A17
:1079A0008AE00E94F439813021F0FF2DF260FF2E31
:1079B0006FC083ED90E70E94763A8AE080930601DB
:1079C0000E94A9393C01E12C77FC33C0862D8B3213
:1079D000A9F485E890E70E94DB393C0181159140CC
:1079E00059F560E480E891E00E94193B3C010E9457
:1079F000A939829709F5EE24E3941EC0853471F409
:107A000080E891E70E94DB393C0181159140A1F4A7
:107A10004F2D4260F42EE1103DC013C08F3461F44D
:107A200080E891E70E94DB393C01611481E078062F
:107A300019F4E1102DC005C0C3010E94CA393C01F0
:107A4000C3CF82E096E10E94353984EC90E70E9432
:107A5000763A60E480E891E00E94C23A85E990E7D6
:107A60000E94763A60E480EC91E00E94C23A81E99B
:107A700090E70E94763A8FEF0E94F439813021F02E
:107A80009F2D9260F92E04C082E090E20E94353969
:107A9000F1FE6CC0F0FE12C082EF90E70E94763AD1
:107AA00080E38F0D0E945C3A0E94703A8AE00E9447
:107AB000F439813019F088E095E47FC081E191E7E5
:107AC0000E94763A8AE00E94F43947EC51E760E47C
:107AD00070E083EE90E70E94E73A47EC51E760E6FA
:107AE00070E085E990E70E94E73A49EB51E760E8EA
:107AF00070E085E990E70E94E73A81E990E70E940B
:107B0000763A82E30E94F4394FED51E760E071E08C
:107B100085EB90E70E94E73A44ED51E760E471E0BD
:107B200085E990E70E94E73A82E20E945C3A8CE2A3
:107B30000E945C3A8FE390E00E9422398F3F31F03F
:107B400090911103911102C090E002C086E090E094
:107B50000E94873A80E890E70E94763A82E30E948A
:107B6000F439813019F088E093E427C08CE390E089
:107B70000E942239682E8DE390E00E942239712CF8
:107B8000782AEFEF6E167E0621F08091110388238C
:107B900021F05CE3652E5DE0752E89E990E70E9497
:107BA000763AC3010E94873A0E94703A82E30E94AB
:107BB000F439813029F080E094E40E9435395ACEBE
:107BC000F3E0FF1619F081E090E702C085E090E74E
:107BD0000E94353982E6809307018CE68093080184
:107BE00000E010E077247A9441E1642E709206015F
:107BF0000E94A93997FDFACF30EDF32EF80E39E047
:107C00003F1580F10E94A9398C3209F09CC00E9476
:107C1000A939833409F097C00E94A9398C34A9F49A
:107C20008AE790E70E94DB398115914019F080E0E6
:107C300090E089C080910001F81281C0709200012B
:107C400081E090E70E9435397AC08F3409F07BC01B
:107C500083E790E70E94DB398115914041F763EAA1
:107C600071E768C08B3209F06EC08EE690E70E9423
:107C7000DB3981159140D9F60E94A9399C0190ED1C
:107C8000F92EF20E49E04F1508F45CC00E94A939A4
:107C90008C3209F058C00E94A939412C512C30ED8A
:107CA000380F3A3078F4EAE0E49D9001E59D300D1C
:107CB0001124820F931F2C01F0E34F1A51080E94E8
:107CC000A939EDCF41145104F1F18A33E1F58091E6
:107CD0000001F8120DC085E080930601720124E0D6
:107CE000E21AF1083CEFE316F10480F1C201D0C0C2
:107CF00088E991E70E94DB39811541E0940719F585
:107D000081E090E10E94353980910001853070F466
:107D100087E491E70E94763A80910001805D0E949D
:107D20005C3A0E94703A85E00E94F439F0920001BA
:107D300068E670E78F2D0E94773B709206010E94E3
:107D4000A93901C0C9010E94CA3954CF0E94A9397A
:107D5000823419F0C20102979BC00E94A9398C3469
:107D6000C9F70E94A9398D830E94A9392D81203538
:107D700009F005C1873409F067C00E94A9397C0168
:107D80000E94A939382E212CE228F328E114F104AD
:107D900051F0E016F10621F480EEE816F10488F0C7
:107DA000C201069775C0012B19F060925700E89543
:107DB00081E094E10E9435396FEF80E090E00E940D
:107DC0000A3B97013695322F2227379527953B831B
:107DD0002A83290120E02D830E94A9398C010E9469
:107DE000A939D82EC12C0C291D2931E0F201080136
:107DF00030935700E89511242D812E5F42E0440E08
:107E0000511C203841F70E94033B83E0EA81FB814B
:107E100080935700E8950E94033B85E0EA81FB814F
:107E200080935700E8950E94033B87010F5F1F4F27
:107E300080E78093090187E680930A01E0920B01B5
:107E4000F0920C0186E02AC0E4E04E16510409F4D9
:107E50009FC0F7E04F16510409F05FC0223509F1C9
:107E6000273509F095C0853409F092C00E94A939E0
:107E70007C010E94A939982E812CE828F9280E94BB
:107E8000A93999EF940D981709F44DC0C2010797CD
:107E90000E944B3A0E94C63BA9CE8EE00E94A83BAE
:107EA000A5CE853409F074C00E94A9392C010E9426
:107EB000A939B82EA12C4A285B280E94A93922E0B2
:107EC0004216510438F39201295F3F4F2115344087
:107ED00008F792E79093090195E690930A01409282
:107EE0000B0150920C0180930D014EE051E0242DC6
:107EF000280F241591F27201EFEFEE1AFE0AC2016B
:107F00002D8349835C830E94223949815C81FA0177
:107F10008193AF0127012D81ECCFF7E04F1651047B
:107F200008F09ECF35C022E0E216F10408F4AECF8F
:107F30009701240D351D2115344008F0A7CF87E7A0
:107F40008093090185E680930A01E0920B01F0928B
:107F50000C0190930D01242D273079F02D830E9480
:107F6000A93927019FEF491A590A682FC7010E94B2
:107F70000A3B2D8121507201EFCF87E08FCFF4E0D3
:107F80004F16510409F065CF2334E9F48D3431F0F4
:107F90000E94C63BC7010E944B3A28CE012B19F024
:107FA00060925700E895F3E6F09309012DE62093DF
:107FB0000A0184E00E94A83B81E090E20E943539EA
:107FC00000E010E013CE223519F7833509F732E7C8
:107FD0003093090143E740930A0184E00E94A83BE3
:107FE0001092800010928100E0E0F0E00995FECD53
:047FF000F894FFCF33
:027FF400FF008C
:040000030000700089
:00000001FF
